{
	"Final_ProjecT_ETF_BEG.sol": {
		"Token_Holder": {
			"abi": [
				{
					"inputs": [
						{
							"internalType": "address",
							"name": "",
							"type": "address"
						}
					],
					"name": "balance",
					"outputs": [
						{
							"internalType": "uint256",
							"name": "",
							"type": "uint256"
						}
					],
					"stateMutability": "view",
					"type": "function"
				},
				{
					"inputs": [
						{
							"internalType": "address",
							"name": "_add",
							"type": "address"
						},
						{
							"internalType": "uint256",
							"name": "burn",
							"type": "uint256"
						}
					],
					"name": "burnIt",
					"outputs": [
						{
							"internalType": "string",
							"name": "",
							"type": "string"
						}
					],
					"stateMutability": "nonpayable",
					"type": "function"
				},
				{
					"inputs": [
						{
							"internalType": "string",
							"name": "Mdata",
							"type": "string"
						},
						{
							"internalType": "string",
							"name": "new_value",
							"type": "string"
						}
					],
					"name": "infoUpdate",
					"outputs": [
						{
							"internalType": "string",
							"name": "",
							"type": "string"
						}
					],
					"stateMutability": "nonpayable",
					"type": "function"
				},
				{
					"inputs": [
						{
							"internalType": "address",
							"name": "_addr",
							"type": "address"
						},
						{
							"internalType": "uint256",
							"name": "bal",
							"type": "uint256"
						}
					],
					"name": "mint",
					"outputs": [],
					"stateMutability": "nonpayable",
					"type": "function"
				},
				{
					"inputs": [
						{
							"internalType": "string",
							"name": "_name",
							"type": "string"
						},
						{
							"internalType": "string",
							"name": "_abbr",
							"type": "string"
						}
					],
					"name": "putDetails",
					"outputs": [],
					"stateMutability": "nonpayable",
					"type": "function"
				},
				{
					"inputs": [],
					"name": "toShow",
					"outputs": [
						{
							"internalType": "string",
							"name": "Name_is",
							"type": "string"
						},
						{
							"internalType": "string",
							"name": "Abbreviation_is",
							"type": "string"
						},
						{
							"internalType": "uint256",
							"name": "Total_Supply_is",
							"type": "uint256"
						}
					],
					"stateMutability": "view",
					"type": "function"
				}
			],
			"devdoc": {
				"kind": "dev",
				"methods": {},
				"version": 1
			},
			"evm": {
				"assembly": "    /* \"Final_ProjecT_ETF_BEG.sol\":142:2303  contract Token_Holder{... */\n  mstore(0x40, 0x80)\n  callvalue\n  dup1\n  iszero\n  tag_1\n  jumpi\n  0x00\n  dup1\n  revert\ntag_1:\n  pop\n  dataSize(sub_0)\n  dup1\n  dataOffset(sub_0)\n  0x00\n  codecopy\n  0x00\n  return\nstop\n\nsub_0: assembly {\n        /* \"Final_ProjecT_ETF_BEG.sol\":142:2303  contract Token_Holder{... */\n      mstore(0x40, 0x80)\n      callvalue\n      dup1\n      iszero\n      tag_1\n      jumpi\n      0x00\n      dup1\n      revert\n    tag_1:\n      pop\n      jumpi(tag_2, lt(calldatasize, 0x04))\n      shr(0xe0, calldataload(0x00))\n      dup1\n      0x08e528ac\n      eq\n      tag_3\n      jumpi\n      dup1\n      0x3fbf11c1\n      eq\n      tag_4\n      jumpi\n      dup1\n      0x40c10f19\n      eq\n      tag_5\n      jumpi\n      dup1\n      0x51728e5a\n      eq\n      tag_6\n      jumpi\n      dup1\n      0xbac6522c\n      eq\n      tag_7\n      jumpi\n      dup1\n      0xe3d670d7\n      eq\n      tag_8\n      jumpi\n    tag_2:\n      0x00\n      dup1\n      revert\n        /* \"Final_ProjecT_ETF_BEG.sol\":1000:1271  function burnIt(address _add, uint burn) public returns (string memory){... */\n    tag_3:\n      tag_9\n      0x04\n      dup1\n      calldatasize\n      sub\n      dup2\n      add\n      swap1\n      tag_10\n      swap2\n      swap1\n      tag_11\n      jump\t// in\n    tag_10:\n      tag_12\n      jump\t// in\n    tag_9:\n      mload(0x40)\n      tag_13\n      swap2\n      swap1\n      tag_14\n      jump\t// in\n    tag_13:\n      mload(0x40)\n      dup1\n      swap2\n      sub\n      swap1\n      return\n        /* \"Final_ProjecT_ETF_BEG.sol\":647:773  function putDetails(string memory _name, string memory _abbr) public{... */\n    tag_4:\n      tag_15\n      0x04\n      dup1\n      calldatasize\n      sub\n      dup2\n      add\n      swap1\n      tag_16\n      swap2\n      swap1\n      tag_17\n      jump\t// in\n    tag_16:\n      tag_18\n      jump\t// in\n    tag_15:\n      stop\n        /* \"Final_ProjecT_ETF_BEG.sol\":845:959  function mint(address _addr, uint bal) public {... */\n    tag_5:\n      tag_19\n      0x04\n      dup1\n      calldatasize\n      sub\n      dup2\n      add\n      swap1\n      tag_20\n      swap2\n      swap1\n      tag_11\n      jump\t// in\n    tag_20:\n      tag_21\n      jump\t// in\n    tag_19:\n      stop\n        /* \"Final_ProjecT_ETF_BEG.sol\":1617:2298  function infoUpdate(string memory Mdata, string memory new_value) public returns(string memory){... */\n    tag_6:\n      tag_22\n      0x04\n      dup1\n      calldatasize\n      sub\n      dup2\n      add\n      swap1\n      tag_23\n      swap2\n      swap1\n      tag_17\n      jump\t// in\n    tag_23:\n      tag_24\n      jump\t// in\n    tag_22:\n      mload(0x40)\n      tag_25\n      swap2\n      swap1\n      tag_14\n      jump\t// in\n    tag_25:\n      mload(0x40)\n      dup1\n      swap2\n      sub\n      swap1\n      return\n        /* \"Final_ProjecT_ETF_BEG.sol\":1319:1538  function toShow() view public returns(string memory Name_is, string memory Abbreviation_is, uint Total_Supply_is){... */\n    tag_7:\n      tag_26\n      tag_27\n      jump\t// in\n    tag_26:\n      mload(0x40)\n      tag_28\n      swap4\n      swap3\n      swap2\n      swap1\n      tag_29\n      jump\t// in\n    tag_28:\n      mload(0x40)\n      dup1\n      swap2\n      sub\n      swap1\n      return\n        /* \"Final_ProjecT_ETF_BEG.sol\":434:473  mapping(address => uint) public balance */\n    tag_8:\n      tag_30\n      0x04\n      dup1\n      calldatasize\n      sub\n      dup2\n      add\n      swap1\n      tag_31\n      swap2\n      swap1\n      tag_32\n      jump\t// in\n    tag_31:\n      tag_33\n      jump\t// in\n    tag_30:\n      mload(0x40)\n      tag_34\n      swap2\n      swap1\n      tag_35\n      jump\t// in\n    tag_34:\n      mload(0x40)\n      dup1\n      swap2\n      sub\n      swap1\n      return\n        /* \"Final_ProjecT_ETF_BEG.sol\":1000:1271  function burnIt(address _add, uint burn) public returns (string memory){... */\n    tag_12:\n        /* \"Final_ProjecT_ETF_BEG.sol\":1057:1070  string memory */\n      0x60\n        /* \"Final_ProjecT_ETF_BEG.sol\":1101:1105  burn */\n      dup2\n        /* \"Final_ProjecT_ETF_BEG.sol\":1085:1092  balance */\n      0x00\n        /* \"Final_ProjecT_ETF_BEG.sol\":1085:1098  balance[_add] */\n      dup1\n        /* \"Final_ProjecT_ETF_BEG.sol\":1093:1097  _add */\n      dup6\n        /* \"Final_ProjecT_ETF_BEG.sol\":1085:1098  balance[_add] */\n      0xffffffffffffffffffffffffffffffffffffffff\n      and\n      0xffffffffffffffffffffffffffffffffffffffff\n      and\n      dup2\n      mstore\n      0x20\n      add\n      swap1\n      dup2\n      mstore\n      0x20\n      add\n      0x00\n      keccak256\n      sload\n        /* \"Final_ProjecT_ETF_BEG.sol\":1085:1105  balance[_add] >=burn */\n      lt\n        /* \"Final_ProjecT_ETF_BEG.sol\":1082:1264  if(balance[_add] >=burn){... */\n      tag_37\n      jumpi\n        /* \"Final_ProjecT_ETF_BEG.sol\":1138:1142  burn */\n      dup2\n        /* \"Final_ProjecT_ETF_BEG.sol\":1121:1128  balance */\n      0x00\n        /* \"Final_ProjecT_ETF_BEG.sol\":1121:1134  balance[_add] */\n      dup1\n        /* \"Final_ProjecT_ETF_BEG.sol\":1129:1133  _add */\n      dup6\n        /* \"Final_ProjecT_ETF_BEG.sol\":1121:1134  balance[_add] */\n      0xffffffffffffffffffffffffffffffffffffffff\n      and\n      0xffffffffffffffffffffffffffffffffffffffff\n      and\n      dup2\n      mstore\n      0x20\n      add\n      swap1\n      dup2\n      mstore\n      0x20\n      add\n      0x00\n      keccak256\n      0x00\n        /* \"Final_ProjecT_ETF_BEG.sol\":1121:1142  balance[_add] -= burn */\n      dup3\n      dup3\n      sload\n      tag_38\n      swap2\n      swap1\n      tag_39\n      jump\t// in\n    tag_38:\n      swap3\n      pop\n      pop\n      dup2\n      swap1\n      sstore\n      pop\n        /* \"Final_ProjecT_ETF_BEG.sol\":1157:1183  return \"Update Successful\" */\n      mload(0x40)\n      dup1\n      0x40\n      add\n      0x40\n      mstore\n      dup1\n      0x11\n      dup2\n      mstore\n      0x20\n      add\n      0x557064617465205375636365737366756c000000000000000000000000000000\n      dup2\n      mstore\n      pop\n      swap1\n      pop\n      jump(tag_36)\n        /* \"Final_ProjecT_ETF_BEG.sol\":1082:1264  if(balance[_add] >=burn){... */\n    tag_37:\n        /* \"Final_ProjecT_ETF_BEG.sol\":1225:1252  return \"Not Enough Balance\" */\n      mload(0x40)\n      dup1\n      0x40\n      add\n      0x40\n      mstore\n      dup1\n      0x12\n      dup2\n      mstore\n      0x20\n      add\n      0x4e6f7420456e6f7567682042616c616e63650000000000000000000000000000\n      dup2\n      mstore\n      pop\n      swap1\n      pop\n        /* \"Final_ProjecT_ETF_BEG.sol\":1000:1271  function burnIt(address _add, uint burn) public returns (string memory){... */\n    tag_36:\n      swap3\n      swap2\n      pop\n      pop\n      jump\t// out\n        /* \"Final_ProjecT_ETF_BEG.sol\":647:773  function putDetails(string memory _name, string memory _abbr) public{... */\n    tag_18:\n        /* \"Final_ProjecT_ETF_BEG.sol\":735:740  _name */\n      dup2\n        /* \"Final_ProjecT_ETF_BEG.sol\":726:727  f */\n      0x01\n        /* \"Final_ProjecT_ETF_BEG.sol\":726:732  f.name */\n      0x00\n      add\n        /* \"Final_ProjecT_ETF_BEG.sol\":726:740  f.name = _name */\n      swap1\n      dup2\n      tag_42\n      swap2\n      swap1\n      tag_43\n      jump\t// in\n    tag_42:\n      pop\n        /* \"Final_ProjecT_ETF_BEG.sol\":760:765  _abbr */\n      dup1\n        /* \"Final_ProjecT_ETF_BEG.sol\":751:752  f */\n      0x01\n        /* \"Final_ProjecT_ETF_BEG.sol\":751:757  f.abbr */\n      dup1\n      add\n        /* \"Final_ProjecT_ETF_BEG.sol\":751:765  f.abbr = _abbr */\n      swap1\n      dup2\n      tag_44\n      swap2\n      swap1\n      tag_43\n      jump\t// in\n    tag_44:\n      pop\n        /* \"Final_ProjecT_ETF_BEG.sol\":647:773  function putDetails(string memory _name, string memory _abbr) public{... */\n      pop\n      pop\n      jump\t// out\n        /* \"Final_ProjecT_ETF_BEG.sol\":845:959  function mint(address _addr, uint bal) public {... */\n    tag_21:\n        /* \"Final_ProjecT_ETF_BEG.sol\":920:923  bal */\n      dup1\n        /* \"Final_ProjecT_ETF_BEG.sol\":902:909  balance */\n      0x00\n        /* \"Final_ProjecT_ETF_BEG.sol\":902:916  balance[_addr] */\n      dup1\n        /* \"Final_ProjecT_ETF_BEG.sol\":910:915  _addr */\n      dup5\n        /* \"Final_ProjecT_ETF_BEG.sol\":902:916  balance[_addr] */\n      0xffffffffffffffffffffffffffffffffffffffff\n      and\n      0xffffffffffffffffffffffffffffffffffffffff\n      and\n      dup2\n      mstore\n      0x20\n      add\n      swap1\n      dup2\n      mstore\n      0x20\n      add\n      0x00\n      keccak256\n      0x00\n        /* \"Final_ProjecT_ETF_BEG.sol\":902:923  balance[_addr] += bal */\n      dup3\n      dup3\n      sload\n      tag_46\n      swap2\n      swap1\n      tag_47\n      jump\t// in\n    tag_46:\n      swap3\n      pop\n      pop\n      dup2\n      swap1\n      sstore\n      pop\n        /* \"Final_ProjecT_ETF_BEG.sol\":947:950  bal */\n      dup1\n        /* \"Final_ProjecT_ETF_BEG.sol\":934:935  f */\n      0x01\n        /* \"Final_ProjecT_ETF_BEG.sol\":934:943  f.tSupply */\n      0x02\n      add\n      0x00\n        /* \"Final_ProjecT_ETF_BEG.sol\":934:950  f.tSupply += bal */\n      dup3\n      dup3\n      sload\n      tag_48\n      swap2\n      swap1\n      tag_47\n      jump\t// in\n    tag_48:\n      swap3\n      pop\n      pop\n      dup2\n      swap1\n      sstore\n      pop\n        /* \"Final_ProjecT_ETF_BEG.sol\":845:959  function mint(address _addr, uint bal) public {... */\n      pop\n      pop\n      jump\t// out\n        /* \"Final_ProjecT_ETF_BEG.sol\":1617:2298  function infoUpdate(string memory Mdata, string memory new_value) public returns(string memory){... */\n    tag_24:\n        /* \"Final_ProjecT_ETF_BEG.sol\":1698:1711  string memory */\n      0x60\n        /* \"Final_ProjecT_ETF_BEG.sol\":1774:1798  abi.encodePacked(\"Name\") */\n      add(0x20, mload(0x40))\n      tag_50\n      swap1\n      tag_51\n      jump\t// in\n    tag_50:\n      mload(0x40)\n      0x20\n      dup2\n      dup4\n      sub\n      sub\n      dup2\n      mstore\n      swap1\n      0x40\n      mstore\n        /* \"Final_ProjecT_ETF_BEG.sol\":1764:1799  keccak256(abi.encodePacked(\"Name\")) */\n      dup1\n      mload\n      swap1\n      0x20\n      add\n      keccak256\n        /* \"Final_ProjecT_ETF_BEG.sol\":1753:1758  Mdata */\n      dup4\n        /* \"Final_ProjecT_ETF_BEG.sol\":1736:1759  abi.encodePacked(Mdata) */\n      add(0x20, mload(0x40))\n      tag_52\n      swap2\n      swap1\n      tag_53\n      jump\t// in\n    tag_52:\n      mload(0x40)\n      0x20\n      dup2\n      dup4\n      sub\n      sub\n      dup2\n      mstore\n      swap1\n      0x40\n      mstore\n        /* \"Final_ProjecT_ETF_BEG.sol\":1726:1760  keccak256(abi.encodePacked(Mdata)) */\n      dup1\n      mload\n      swap1\n      0x20\n      add\n      keccak256\n        /* \"Final_ProjecT_ETF_BEG.sol\":1726:1799  keccak256(abi.encodePacked(Mdata)) == keccak256(abi.encodePacked(\"Name\")) */\n      eq\n        /* \"Final_ProjecT_ETF_BEG.sol\":1726:1876  keccak256(abi.encodePacked(Mdata)) == keccak256(abi.encodePacked(\"Name\")) || keccak256(abi.encodePacked(Mdata)) == keccak256(abi.encodePacked(\"name\")) */\n      dup1\n      tag_54\n      jumpi\n      pop\n        /* \"Final_ProjecT_ETF_BEG.sol\":1851:1875  abi.encodePacked(\"name\") */\n      add(0x20, mload(0x40))\n      tag_55\n      swap1\n      tag_56\n      jump\t// in\n    tag_55:\n      mload(0x40)\n      0x20\n      dup2\n      dup4\n      sub\n      sub\n      dup2\n      mstore\n      swap1\n      0x40\n      mstore\n        /* \"Final_ProjecT_ETF_BEG.sol\":1841:1876  keccak256(abi.encodePacked(\"name\")) */\n      dup1\n      mload\n      swap1\n      0x20\n      add\n      keccak256\n        /* \"Final_ProjecT_ETF_BEG.sol\":1830:1835  Mdata */\n      dup4\n        /* \"Final_ProjecT_ETF_BEG.sol\":1813:1836  abi.encodePacked(Mdata) */\n      add(0x20, mload(0x40))\n      tag_57\n      swap2\n      swap1\n      tag_53\n      jump\t// in\n    tag_57:\n      mload(0x40)\n      0x20\n      dup2\n      dup4\n      sub\n      sub\n      dup2\n      mstore\n      swap1\n      0x40\n      mstore\n        /* \"Final_ProjecT_ETF_BEG.sol\":1803:1837  keccak256(abi.encodePacked(Mdata)) */\n      dup1\n      mload\n      swap1\n      0x20\n      add\n      keccak256\n        /* \"Final_ProjecT_ETF_BEG.sol\":1803:1876  keccak256(abi.encodePacked(Mdata)) == keccak256(abi.encodePacked(\"name\")) */\n      eq\n        /* \"Final_ProjecT_ETF_BEG.sol\":1726:1876  keccak256(abi.encodePacked(Mdata)) == keccak256(abi.encodePacked(\"Name\")) || keccak256(abi.encodePacked(Mdata)) == keccak256(abi.encodePacked(\"name\")) */\n    tag_54:\n        /* \"Final_ProjecT_ETF_BEG.sol\":1723:2281  if(keccak256(abi.encodePacked(Mdata)) == keccak256(abi.encodePacked(\"Name\")) || keccak256(abi.encodePacked(Mdata)) == keccak256(abi.encodePacked(\"name\"))){... */\n      iszero\n      tag_58\n      jumpi\n        /* \"Final_ProjecT_ETF_BEG.sol\":1899:1908  new_value */\n      dup2\n        /* \"Final_ProjecT_ETF_BEG.sol\":1892:1893  f */\n      0x01\n        /* \"Final_ProjecT_ETF_BEG.sol\":1892:1898  f.name */\n      0x00\n      add\n        /* \"Final_ProjecT_ETF_BEG.sol\":1892:1908  f.name=new_value */\n      swap1\n      dup2\n      tag_59\n      swap2\n      swap1\n      tag_43\n      jump\t// in\n    tag_59:\n      pop\n        /* \"Final_ProjecT_ETF_BEG.sol\":1923:1949  return \"Update Successful\" */\n      mload(0x40)\n      dup1\n      0x40\n      add\n      0x40\n      mstore\n      dup1\n      0x11\n      dup2\n      mstore\n      0x20\n      add\n      0x557064617465205375636365737366756c000000000000000000000000000000\n      dup2\n      mstore\n      pop\n      swap1\n      pop\n      jump(tag_49)\n        /* \"Final_ProjecT_ETF_BEG.sol\":1723:2281  if(keccak256(abi.encodePacked(Mdata)) == keccak256(abi.encodePacked(\"Name\")) || keccak256(abi.encodePacked(Mdata)) == keccak256(abi.encodePacked(\"name\"))){... */\n    tag_58:\n        /* \"Final_ProjecT_ETF_BEG.sol\":2027:2051  abi.encodePacked(\"Abbr\") */\n      add(0x20, mload(0x40))\n      tag_61\n      swap1\n      tag_62\n      jump\t// in\n    tag_61:\n      mload(0x40)\n      0x20\n      dup2\n      dup4\n      sub\n      sub\n      dup2\n      mstore\n      swap1\n      0x40\n      mstore\n        /* \"Final_ProjecT_ETF_BEG.sol\":2017:2052  keccak256(abi.encodePacked(\"Abbr\")) */\n      dup1\n      mload\n      swap1\n      0x20\n      add\n      keccak256\n        /* \"Final_ProjecT_ETF_BEG.sol\":2006:2011  Mdata */\n      dup4\n        /* \"Final_ProjecT_ETF_BEG.sol\":1989:2012  abi.encodePacked(Mdata) */\n      add(0x20, mload(0x40))\n      tag_63\n      swap2\n      swap1\n      tag_53\n      jump\t// in\n    tag_63:\n      mload(0x40)\n      0x20\n      dup2\n      dup4\n      sub\n      sub\n      dup2\n      mstore\n      swap1\n      0x40\n      mstore\n        /* \"Final_ProjecT_ETF_BEG.sol\":1979:2013  keccak256(abi.encodePacked(Mdata)) */\n      dup1\n      mload\n      swap1\n      0x20\n      add\n      keccak256\n        /* \"Final_ProjecT_ETF_BEG.sol\":1979:2052  keccak256(abi.encodePacked(Mdata)) == keccak256(abi.encodePacked(\"Abbr\")) */\n      eq\n        /* \"Final_ProjecT_ETF_BEG.sol\":1979:2129  keccak256(abi.encodePacked(Mdata)) == keccak256(abi.encodePacked(\"Abbr\")) || keccak256(abi.encodePacked(Mdata)) == keccak256(abi.encodePacked(\"abbr\")) */\n      dup1\n      tag_64\n      jumpi\n      pop\n        /* \"Final_ProjecT_ETF_BEG.sol\":2104:2128  abi.encodePacked(\"abbr\") */\n      add(0x20, mload(0x40))\n      tag_65\n      swap1\n      tag_66\n      jump\t// in\n    tag_65:\n      mload(0x40)\n      0x20\n      dup2\n      dup4\n      sub\n      sub\n      dup2\n      mstore\n      swap1\n      0x40\n      mstore\n        /* \"Final_ProjecT_ETF_BEG.sol\":2094:2129  keccak256(abi.encodePacked(\"abbr\")) */\n      dup1\n      mload\n      swap1\n      0x20\n      add\n      keccak256\n        /* \"Final_ProjecT_ETF_BEG.sol\":2083:2088  Mdata */\n      dup4\n        /* \"Final_ProjecT_ETF_BEG.sol\":2066:2089  abi.encodePacked(Mdata) */\n      add(0x20, mload(0x40))\n      tag_67\n      swap2\n      swap1\n      tag_53\n      jump\t// in\n    tag_67:\n      mload(0x40)\n      0x20\n      dup2\n      dup4\n      sub\n      sub\n      dup2\n      mstore\n      swap1\n      0x40\n      mstore\n        /* \"Final_ProjecT_ETF_BEG.sol\":2056:2090  keccak256(abi.encodePacked(Mdata)) */\n      dup1\n      mload\n      swap1\n      0x20\n      add\n      keccak256\n        /* \"Final_ProjecT_ETF_BEG.sol\":2056:2129  keccak256(abi.encodePacked(Mdata)) == keccak256(abi.encodePacked(\"abbr\")) */\n      eq\n        /* \"Final_ProjecT_ETF_BEG.sol\":1979:2129  keccak256(abi.encodePacked(Mdata)) == keccak256(abi.encodePacked(\"Abbr\")) || keccak256(abi.encodePacked(Mdata)) == keccak256(abi.encodePacked(\"abbr\")) */\n    tag_64:\n        /* \"Final_ProjecT_ETF_BEG.sol\":1976:2281  if(keccak256(abi.encodePacked(Mdata)) == keccak256(abi.encodePacked(\"Abbr\")) || keccak256(abi.encodePacked(Mdata)) == keccak256(abi.encodePacked(\"abbr\"))){... */\n      iszero\n      tag_68\n      jumpi\n        /* \"Final_ProjecT_ETF_BEG.sol\":2152:2161  new_value */\n      dup2\n        /* \"Final_ProjecT_ETF_BEG.sol\":2145:2146  f */\n      0x01\n        /* \"Final_ProjecT_ETF_BEG.sol\":2145:2151  f.abbr */\n      dup1\n      add\n        /* \"Final_ProjecT_ETF_BEG.sol\":2145:2161  f.abbr=new_value */\n      swap1\n      dup2\n      tag_69\n      swap2\n      swap1\n      tag_43\n      jump\t// in\n    tag_69:\n      pop\n        /* \"Final_ProjecT_ETF_BEG.sol\":2176:2202  return \"Update Successful\" */\n      mload(0x40)\n      dup1\n      0x40\n      add\n      0x40\n      mstore\n      dup1\n      0x11\n      dup2\n      mstore\n      0x20\n      add\n      0x557064617465205375636365737366756c000000000000000000000000000000\n      dup2\n      mstore\n      pop\n      swap1\n      pop\n      jump(tag_49)\n        /* \"Final_ProjecT_ETF_BEG.sol\":1976:2281  if(keccak256(abi.encodePacked(Mdata)) == keccak256(abi.encodePacked(\"Abbr\")) || keccak256(abi.encodePacked(Mdata)) == keccak256(abi.encodePacked(\"abbr\"))){... */\n    tag_68:\n        /* \"Final_ProjecT_ETF_BEG.sol\":2243:2269  return \"Invalid Request !\" */\n      mload(0x40)\n      dup1\n      0x40\n      add\n      0x40\n      mstore\n      dup1\n      0x11\n      dup2\n      mstore\n      0x20\n      add\n      0x496e76616c696420526571756573742021000000000000000000000000000000\n      dup2\n      mstore\n      pop\n      swap1\n      pop\n        /* \"Final_ProjecT_ETF_BEG.sol\":1617:2298  function infoUpdate(string memory Mdata, string memory new_value) public returns(string memory){... */\n    tag_49:\n      swap3\n      swap2\n      pop\n      pop\n      jump\t// out\n        /* \"Final_ProjecT_ETF_BEG.sol\":1319:1538  function toShow() view public returns(string memory Name_is, string memory Abbreviation_is, uint Total_Supply_is){... */\n    tag_27:\n        /* \"Final_ProjecT_ETF_BEG.sol\":1357:1378  string memory Name_is */\n      0x60\n        /* \"Final_ProjecT_ETF_BEG.sol\":1380:1409  string memory Abbreviation_is */\n      dup1\n        /* \"Final_ProjecT_ETF_BEG.sol\":1411:1431  uint Total_Supply_is */\n      0x00\n        /* \"Final_ProjecT_ETF_BEG.sol\":1451:1452  f */\n      0x01\n        /* \"Final_ProjecT_ETF_BEG.sol\":1451:1457  f.name */\n      0x00\n      add\n        /* \"Final_ProjecT_ETF_BEG.sol\":1443:1457  Name_is=f.name */\n      dup1\n      sload\n      tag_72\n      swap1\n      tag_73\n      jump\t// in\n    tag_72:\n      dup1\n      0x1f\n      add\n      0x20\n      dup1\n      swap2\n      div\n      mul\n      0x20\n      add\n      mload(0x40)\n      swap1\n      dup2\n      add\n      0x40\n      mstore\n      dup1\n      swap3\n      swap2\n      swap1\n      dup2\n      dup2\n      mstore\n      0x20\n      add\n      dup3\n      dup1\n      sload\n      tag_74\n      swap1\n      tag_73\n      jump\t// in\n    tag_74:\n      dup1\n      iszero\n      tag_75\n      jumpi\n      dup1\n      0x1f\n      lt\n      tag_76\n      jumpi\n      0x0100\n      dup1\n      dup4\n      sload\n      div\n      mul\n      dup4\n      mstore\n      swap2\n      0x20\n      add\n      swap2\n      jump(tag_75)\n    tag_76:\n      dup3\n      add\n      swap2\n      swap1\n      0x00\n      mstore\n      keccak256(0x00, 0x20)\n      swap1\n    tag_77:\n      dup2\n      sload\n      dup2\n      mstore\n      swap1\n      0x01\n      add\n      swap1\n      0x20\n      add\n      dup1\n      dup4\n      gt\n      tag_77\n      jumpi\n      dup3\n      swap1\n      sub\n      0x1f\n      and\n      dup3\n      add\n      swap2\n    tag_75:\n      pop\n      pop\n      pop\n      pop\n      pop\n      swap3\n      pop\n        /* \"Final_ProjecT_ETF_BEG.sol\":1486:1487  f */\n      0x01\n        /* \"Final_ProjecT_ETF_BEG.sol\":1486:1492  f.abbr */\n      dup1\n      add\n        /* \"Final_ProjecT_ETF_BEG.sol\":1468:1492  Abbreviation_is = f.abbr */\n      dup1\n      sload\n      tag_78\n      swap1\n      tag_73\n      jump\t// in\n    tag_78:\n      dup1\n      0x1f\n      add\n      0x20\n      dup1\n      swap2\n      div\n      mul\n      0x20\n      add\n      mload(0x40)\n      swap1\n      dup2\n      add\n      0x40\n      mstore\n      dup1\n      swap3\n      swap2\n      swap1\n      dup2\n      dup2\n      mstore\n      0x20\n      add\n      dup3\n      dup1\n      sload\n      tag_79\n      swap1\n      tag_73\n      jump\t// in\n    tag_79:\n      dup1\n      iszero\n      tag_80\n      jumpi\n      dup1\n      0x1f\n      lt\n      tag_81\n      jumpi\n      0x0100\n      dup1\n      dup4\n      sload\n      div\n      mul\n      dup4\n      mstore\n      swap2\n      0x20\n      add\n      swap2\n      jump(tag_80)\n    tag_81:\n      dup3\n      add\n      swap2\n      swap1\n      0x00\n      mstore\n      keccak256(0x00, 0x20)\n      swap1\n    tag_82:\n      dup2\n      sload\n      dup2\n      mstore\n      swap1\n      0x01\n      add\n      swap1\n      0x20\n      add\n      dup1\n      dup4\n      gt\n      tag_82\n      jumpi\n      dup3\n      swap1\n      sub\n      0x1f\n      and\n      dup3\n      add\n      swap2\n    tag_80:\n      pop\n      pop\n      pop\n      pop\n      pop\n      swap2\n      pop\n        /* \"Final_ProjecT_ETF_BEG.sol\":1521:1522  f */\n      0x01\n        /* \"Final_ProjecT_ETF_BEG.sol\":1521:1530  f.tSupply */\n      0x02\n      add\n      sload\n        /* \"Final_ProjecT_ETF_BEG.sol\":1503:1530  Total_Supply_is = f.tSupply */\n      swap1\n      pop\n        /* \"Final_ProjecT_ETF_BEG.sol\":1319:1538  function toShow() view public returns(string memory Name_is, string memory Abbreviation_is, uint Total_Supply_is){... */\n      swap1\n      swap2\n      swap3\n      jump\t// out\n        /* \"Final_ProjecT_ETF_BEG.sol\":434:473  mapping(address => uint) public balance */\n    tag_33:\n      mstore(0x20, 0x00)\n      dup1\n      0x00\n      mstore\n      keccak256(0x00, 0x40)\n      0x00\n      swap2\n      pop\n      swap1\n      pop\n      sload\n      dup2\n      jump\t// out\n        /* \"#utility.yul\":7:82   */\n    tag_83:\n        /* \"#utility.yul\":40:46   */\n      0x00\n        /* \"#utility.yul\":73:75   */\n      0x40\n        /* \"#utility.yul\":67:76   */\n      mload\n        /* \"#utility.yul\":57:76   */\n      swap1\n      pop\n        /* \"#utility.yul\":7:82   */\n      swap1\n      jump\t// out\n        /* \"#utility.yul\":88:205   */\n    tag_84:\n        /* \"#utility.yul\":197:198   */\n      0x00\n        /* \"#utility.yul\":194:195   */\n      dup1\n        /* \"#utility.yul\":187:199   */\n      revert\n        /* \"#utility.yul\":211:328   */\n    tag_85:\n        /* \"#utility.yul\":320:321   */\n      0x00\n        /* \"#utility.yul\":317:318   */\n      dup1\n        /* \"#utility.yul\":310:322   */\n      revert\n        /* \"#utility.yul\":334:460   */\n    tag_86:\n        /* \"#utility.yul\":371:378   */\n      0x00\n        /* \"#utility.yul\":411:453   */\n      0xffffffffffffffffffffffffffffffffffffffff\n        /* \"#utility.yul\":404:409   */\n      dup3\n        /* \"#utility.yul\":400:454   */\n      and\n        /* \"#utility.yul\":389:454   */\n      swap1\n      pop\n        /* \"#utility.yul\":334:460   */\n      swap2\n      swap1\n      pop\n      jump\t// out\n        /* \"#utility.yul\":466:562   */\n    tag_87:\n        /* \"#utility.yul\":503:510   */\n      0x00\n        /* \"#utility.yul\":532:556   */\n      tag_141\n        /* \"#utility.yul\":550:555   */\n      dup3\n        /* \"#utility.yul\":532:556   */\n      tag_86\n      jump\t// in\n    tag_141:\n        /* \"#utility.yul\":521:556   */\n      swap1\n      pop\n        /* \"#utility.yul\":466:562   */\n      swap2\n      swap1\n      pop\n      jump\t// out\n        /* \"#utility.yul\":568:690   */\n    tag_88:\n        /* \"#utility.yul\":641:665   */\n      tag_143\n        /* \"#utility.yul\":659:664   */\n      dup2\n        /* \"#utility.yul\":641:665   */\n      tag_87\n      jump\t// in\n    tag_143:\n        /* \"#utility.yul\":634:639   */\n      dup2\n        /* \"#utility.yul\":631:666   */\n      eq\n        /* \"#utility.yul\":621:684   */\n      tag_144\n      jumpi\n        /* \"#utility.yul\":680:681   */\n      0x00\n        /* \"#utility.yul\":677:678   */\n      dup1\n        /* \"#utility.yul\":670:682   */\n      revert\n        /* \"#utility.yul\":621:684   */\n    tag_144:\n        /* \"#utility.yul\":568:690   */\n      pop\n      jump\t// out\n        /* \"#utility.yul\":696:835   */\n    tag_89:\n        /* \"#utility.yul\":742:747   */\n      0x00\n        /* \"#utility.yul\":780:786   */\n      dup2\n        /* \"#utility.yul\":767:787   */\n      calldataload\n        /* \"#utility.yul\":758:787   */\n      swap1\n      pop\n        /* \"#utility.yul\":796:829   */\n      tag_146\n        /* \"#utility.yul\":823:828   */\n      dup2\n        /* \"#utility.yul\":796:829   */\n      tag_88\n      jump\t// in\n    tag_146:\n        /* \"#utility.yul\":696:835   */\n      swap3\n      swap2\n      pop\n      pop\n      jump\t// out\n        /* \"#utility.yul\":841:918   */\n    tag_90:\n        /* \"#utility.yul\":878:885   */\n      0x00\n        /* \"#utility.yul\":907:912   */\n      dup2\n        /* \"#utility.yul\":896:912   */\n      swap1\n      pop\n        /* \"#utility.yul\":841:918   */\n      swap2\n      swap1\n      pop\n      jump\t// out\n        /* \"#utility.yul\":924:1046   */\n    tag_91:\n        /* \"#utility.yul\":997:1021   */\n      tag_149\n        /* \"#utility.yul\":1015:1020   */\n      dup2\n        /* \"#utility.yul\":997:1021   */\n      tag_90\n      jump\t// in\n    tag_149:\n        /* \"#utility.yul\":990:995   */\n      dup2\n        /* \"#utility.yul\":987:1022   */\n      eq\n        /* \"#utility.yul\":977:1040   */\n      tag_150\n      jumpi\n        /* \"#utility.yul\":1036:1037   */\n      0x00\n        /* \"#utility.yul\":1033:1034   */\n      dup1\n        /* \"#utility.yul\":1026:1038   */\n      revert\n        /* \"#utility.yul\":977:1040   */\n    tag_150:\n        /* \"#utility.yul\":924:1046   */\n      pop\n      jump\t// out\n        /* \"#utility.yul\":1052:1191   */\n    tag_92:\n        /* \"#utility.yul\":1098:1103   */\n      0x00\n        /* \"#utility.yul\":1136:1142   */\n      dup2\n        /* \"#utility.yul\":1123:1143   */\n      calldataload\n        /* \"#utility.yul\":1114:1143   */\n      swap1\n      pop\n        /* \"#utility.yul\":1152:1185   */\n      tag_152\n        /* \"#utility.yul\":1179:1184   */\n      dup2\n        /* \"#utility.yul\":1152:1185   */\n      tag_91\n      jump\t// in\n    tag_152:\n        /* \"#utility.yul\":1052:1191   */\n      swap3\n      swap2\n      pop\n      pop\n      jump\t// out\n        /* \"#utility.yul\":1197:1671   */\n    tag_11:\n        /* \"#utility.yul\":1265:1271   */\n      0x00\n        /* \"#utility.yul\":1273:1279   */\n      dup1\n        /* \"#utility.yul\":1322:1324   */\n      0x40\n        /* \"#utility.yul\":1310:1319   */\n      dup4\n        /* \"#utility.yul\":1301:1308   */\n      dup6\n        /* \"#utility.yul\":1297:1320   */\n      sub\n        /* \"#utility.yul\":1293:1325   */\n      slt\n        /* \"#utility.yul\":1290:1409   */\n      iszero\n      tag_154\n      jumpi\n        /* \"#utility.yul\":1328:1407   */\n      tag_155\n      tag_84\n      jump\t// in\n    tag_155:\n        /* \"#utility.yul\":1290:1409   */\n    tag_154:\n        /* \"#utility.yul\":1448:1449   */\n      0x00\n        /* \"#utility.yul\":1473:1526   */\n      tag_156\n        /* \"#utility.yul\":1518:1525   */\n      dup6\n        /* \"#utility.yul\":1509:1515   */\n      dup3\n        /* \"#utility.yul\":1498:1507   */\n      dup7\n        /* \"#utility.yul\":1494:1516   */\n      add\n        /* \"#utility.yul\":1473:1526   */\n      tag_89\n      jump\t// in\n    tag_156:\n        /* \"#utility.yul\":1463:1526   */\n      swap3\n      pop\n        /* \"#utility.yul\":1419:1536   */\n      pop\n        /* \"#utility.yul\":1575:1577   */\n      0x20\n        /* \"#utility.yul\":1601:1654   */\n      tag_157\n        /* \"#utility.yul\":1646:1653   */\n      dup6\n        /* \"#utility.yul\":1637:1643   */\n      dup3\n        /* \"#utility.yul\":1626:1635   */\n      dup7\n        /* \"#utility.yul\":1622:1644   */\n      add\n        /* \"#utility.yul\":1601:1654   */\n      tag_92\n      jump\t// in\n    tag_157:\n        /* \"#utility.yul\":1591:1654   */\n      swap2\n      pop\n        /* \"#utility.yul\":1546:1664   */\n      pop\n        /* \"#utility.yul\":1197:1671   */\n      swap3\n      pop\n      swap3\n      swap1\n      pop\n      jump\t// out\n        /* \"#utility.yul\":1677:1776   */\n    tag_93:\n        /* \"#utility.yul\":1729:1735   */\n      0x00\n        /* \"#utility.yul\":1763:1768   */\n      dup2\n        /* \"#utility.yul\":1757:1769   */\n      mload\n        /* \"#utility.yul\":1747:1769   */\n      swap1\n      pop\n        /* \"#utility.yul\":1677:1776   */\n      swap2\n      swap1\n      pop\n      jump\t// out\n        /* \"#utility.yul\":1782:1951   */\n    tag_94:\n        /* \"#utility.yul\":1866:1877   */\n      0x00\n        /* \"#utility.yul\":1900:1906   */\n      dup3\n        /* \"#utility.yul\":1895:1898   */\n      dup3\n        /* \"#utility.yul\":1888:1907   */\n      mstore\n        /* \"#utility.yul\":1940:1944   */\n      0x20\n        /* \"#utility.yul\":1935:1938   */\n      dup3\n        /* \"#utility.yul\":1931:1945   */\n      add\n        /* \"#utility.yul\":1916:1945   */\n      swap1\n      pop\n        /* \"#utility.yul\":1782:1951   */\n      swap3\n      swap2\n      pop\n      pop\n      jump\t// out\n        /* \"#utility.yul\":1957:2096   */\n    tag_95:\n        /* \"#utility.yul\":2046:2052   */\n      dup3\n        /* \"#utility.yul\":2041:2044   */\n      dup2\n        /* \"#utility.yul\":2036:2039   */\n      dup4\n        /* \"#utility.yul\":2030:2053   */\n      mcopy\n        /* \"#utility.yul\":2087:2088   */\n      0x00\n        /* \"#utility.yul\":2078:2084   */\n      dup4\n        /* \"#utility.yul\":2073:2076   */\n      dup4\n        /* \"#utility.yul\":2069:2085   */\n      add\n        /* \"#utility.yul\":2062:2089   */\n      mstore\n        /* \"#utility.yul\":1957:2096   */\n      pop\n      pop\n      pop\n      jump\t// out\n        /* \"#utility.yul\":2102:2204   */\n    tag_96:\n        /* \"#utility.yul\":2143:2149   */\n      0x00\n        /* \"#utility.yul\":2194:2196   */\n      0x1f\n        /* \"#utility.yul\":2190:2197   */\n      not\n        /* \"#utility.yul\":2185:2187   */\n      0x1f\n        /* \"#utility.yul\":2178:2183   */\n      dup4\n        /* \"#utility.yul\":2174:2188   */\n      add\n        /* \"#utility.yul\":2170:2198   */\n      and\n        /* \"#utility.yul\":2160:2198   */\n      swap1\n      pop\n        /* \"#utility.yul\":2102:2204   */\n      swap2\n      swap1\n      pop\n      jump\t// out\n        /* \"#utility.yul\":2210:2587   */\n    tag_97:\n        /* \"#utility.yul\":2298:2301   */\n      0x00\n        /* \"#utility.yul\":2326:2365   */\n      tag_163\n        /* \"#utility.yul\":2359:2364   */\n      dup3\n        /* \"#utility.yul\":2326:2365   */\n      tag_93\n      jump\t// in\n    tag_163:\n        /* \"#utility.yul\":2381:2452   */\n      tag_164\n        /* \"#utility.yul\":2445:2451   */\n      dup2\n        /* \"#utility.yul\":2440:2443   */\n      dup6\n        /* \"#utility.yul\":2381:2452   */\n      tag_94\n      jump\t// in\n    tag_164:\n        /* \"#utility.yul\":2374:2452   */\n      swap4\n      pop\n        /* \"#utility.yul\":2461:2526   */\n      tag_165\n        /* \"#utility.yul\":2519:2525   */\n      dup2\n        /* \"#utility.yul\":2514:2517   */\n      dup6\n        /* \"#utility.yul\":2507:2511   */\n      0x20\n        /* \"#utility.yul\":2500:2505   */\n      dup7\n        /* \"#utility.yul\":2496:2512   */\n      add\n        /* \"#utility.yul\":2461:2526   */\n      tag_95\n      jump\t// in\n    tag_165:\n        /* \"#utility.yul\":2551:2580   */\n      tag_166\n        /* \"#utility.yul\":2573:2579   */\n      dup2\n        /* \"#utility.yul\":2551:2580   */\n      tag_96\n      jump\t// in\n    tag_166:\n        /* \"#utility.yul\":2546:2549   */\n      dup5\n        /* \"#utility.yul\":2542:2581   */\n      add\n        /* \"#utility.yul\":2535:2581   */\n      swap2\n      pop\n        /* \"#utility.yul\":2302:2587   */\n      pop\n        /* \"#utility.yul\":2210:2587   */\n      swap3\n      swap2\n      pop\n      pop\n      jump\t// out\n        /* \"#utility.yul\":2593:2906   */\n    tag_14:\n        /* \"#utility.yul\":2706:2710   */\n      0x00\n        /* \"#utility.yul\":2744:2746   */\n      0x20\n        /* \"#utility.yul\":2733:2742   */\n      dup3\n        /* \"#utility.yul\":2729:2747   */\n      add\n        /* \"#utility.yul\":2721:2747   */\n      swap1\n      pop\n        /* \"#utility.yul\":2793:2802   */\n      dup2\n        /* \"#utility.yul\":2787:2791   */\n      dup2\n        /* \"#utility.yul\":2783:2803   */\n      sub\n        /* \"#utility.yul\":2779:2780   */\n      0x00\n        /* \"#utility.yul\":2768:2777   */\n      dup4\n        /* \"#utility.yul\":2764:2781   */\n      add\n        /* \"#utility.yul\":2757:2804   */\n      mstore\n        /* \"#utility.yul\":2821:2899   */\n      tag_168\n        /* \"#utility.yul\":2894:2898   */\n      dup2\n        /* \"#utility.yul\":2885:2891   */\n      dup5\n        /* \"#utility.yul\":2821:2899   */\n      tag_97\n      jump\t// in\n    tag_168:\n        /* \"#utility.yul\":2813:2899   */\n      swap1\n      pop\n        /* \"#utility.yul\":2593:2906   */\n      swap3\n      swap2\n      pop\n      pop\n      jump\t// out\n        /* \"#utility.yul\":2912:3029   */\n    tag_98:\n        /* \"#utility.yul\":3021:3022   */\n      0x00\n        /* \"#utility.yul\":3018:3019   */\n      dup1\n        /* \"#utility.yul\":3011:3023   */\n      revert\n        /* \"#utility.yul\":3035:3152   */\n    tag_99:\n        /* \"#utility.yul\":3144:3145   */\n      0x00\n        /* \"#utility.yul\":3141:3142   */\n      dup1\n        /* \"#utility.yul\":3134:3146   */\n      revert\n        /* \"#utility.yul\":3158:3338   */\n    tag_100:\n        /* \"#utility.yul\":3206:3283   */\n      0x4e487b7100000000000000000000000000000000000000000000000000000000\n        /* \"#utility.yul\":3203:3204   */\n      0x00\n        /* \"#utility.yul\":3196:3284   */\n      mstore\n        /* \"#utility.yul\":3303:3307   */\n      0x41\n        /* \"#utility.yul\":3300:3301   */\n      0x04\n        /* \"#utility.yul\":3293:3308   */\n      mstore\n        /* \"#utility.yul\":3327:3331   */\n      0x24\n        /* \"#utility.yul\":3324:3325   */\n      0x00\n        /* \"#utility.yul\":3317:3332   */\n      revert\n        /* \"#utility.yul\":3344:3625   */\n    tag_101:\n        /* \"#utility.yul\":3427:3454   */\n      tag_173\n        /* \"#utility.yul\":3449:3453   */\n      dup3\n        /* \"#utility.yul\":3427:3454   */\n      tag_96\n      jump\t// in\n    tag_173:\n        /* \"#utility.yul\":3419:3425   */\n      dup2\n        /* \"#utility.yul\":3415:3455   */\n      add\n        /* \"#utility.yul\":3557:3563   */\n      dup2\n        /* \"#utility.yul\":3545:3555   */\n      dup2\n        /* \"#utility.yul\":3542:3564   */\n      lt\n        /* \"#utility.yul\":3521:3539   */\n      0xffffffffffffffff\n        /* \"#utility.yul\":3509:3519   */\n      dup3\n        /* \"#utility.yul\":3506:3540   */\n      gt\n        /* \"#utility.yul\":3503:3565   */\n      or\n        /* \"#utility.yul\":3500:3588   */\n      iszero\n      tag_174\n      jumpi\n        /* \"#utility.yul\":3568:3586   */\n      tag_175\n      tag_100\n      jump\t// in\n    tag_175:\n        /* \"#utility.yul\":3500:3588   */\n    tag_174:\n        /* \"#utility.yul\":3608:3618   */\n      dup1\n        /* \"#utility.yul\":3604:3606   */\n      0x40\n        /* \"#utility.yul\":3597:3619   */\n      mstore\n        /* \"#utility.yul\":3387:3625   */\n      pop\n        /* \"#utility.yul\":3344:3625   */\n      pop\n      pop\n      jump\t// out\n        /* \"#utility.yul\":3631:3760   */\n    tag_102:\n        /* \"#utility.yul\":3665:3671   */\n      0x00\n        /* \"#utility.yul\":3692:3712   */\n      tag_177\n      tag_83\n      jump\t// in\n    tag_177:\n        /* \"#utility.yul\":3682:3712   */\n      swap1\n      pop\n        /* \"#utility.yul\":3721:3754   */\n      tag_178\n        /* \"#utility.yul\":3749:3753   */\n      dup3\n        /* \"#utility.yul\":3741:3747   */\n      dup3\n        /* \"#utility.yul\":3721:3754   */\n      tag_101\n      jump\t// in\n    tag_178:\n        /* \"#utility.yul\":3631:3760   */\n      swap2\n      swap1\n      pop\n      jump\t// out\n        /* \"#utility.yul\":3766:4074   */\n    tag_103:\n        /* \"#utility.yul\":3828:3832   */\n      0x00\n        /* \"#utility.yul\":3918:3936   */\n      0xffffffffffffffff\n        /* \"#utility.yul\":3910:3916   */\n      dup3\n        /* \"#utility.yul\":3907:3937   */\n      gt\n        /* \"#utility.yul\":3904:3960   */\n      iszero\n      tag_180\n      jumpi\n        /* \"#utility.yul\":3940:3958   */\n      tag_181\n      tag_100\n      jump\t// in\n    tag_181:\n        /* \"#utility.yul\":3904:3960   */\n    tag_180:\n        /* \"#utility.yul\":3978:4007   */\n      tag_182\n        /* \"#utility.yul\":4000:4006   */\n      dup3\n        /* \"#utility.yul\":3978:4007   */\n      tag_96\n      jump\t// in\n    tag_182:\n        /* \"#utility.yul\":3970:4007   */\n      swap1\n      pop\n        /* \"#utility.yul\":4062:4066   */\n      0x20\n        /* \"#utility.yul\":4056:4060   */\n      dup2\n        /* \"#utility.yul\":4052:4067   */\n      add\n        /* \"#utility.yul\":4044:4067   */\n      swap1\n      pop\n        /* \"#utility.yul\":3766:4074   */\n      swap2\n      swap1\n      pop\n      jump\t// out\n        /* \"#utility.yul\":4080:4228   */\n    tag_104:\n        /* \"#utility.yul\":4178:4184   */\n      dup3\n        /* \"#utility.yul\":4173:4176   */\n      dup2\n        /* \"#utility.yul\":4168:4171   */\n      dup4\n        /* \"#utility.yul\":4155:4185   */\n      calldatacopy\n        /* \"#utility.yul\":4219:4220   */\n      0x00\n        /* \"#utility.yul\":4210:4216   */\n      dup4\n        /* \"#utility.yul\":4205:4208   */\n      dup4\n        /* \"#utility.yul\":4201:4217   */\n      add\n        /* \"#utility.yul\":4194:4221   */\n      mstore\n        /* \"#utility.yul\":4080:4228   */\n      pop\n      pop\n      pop\n      jump\t// out\n        /* \"#utility.yul\":4234:4659   */\n    tag_105:\n        /* \"#utility.yul\":4312:4317   */\n      0x00\n        /* \"#utility.yul\":4337:4403   */\n      tag_185\n        /* \"#utility.yul\":4353:4402   */\n      tag_186\n        /* \"#utility.yul\":4395:4401   */\n      dup5\n        /* \"#utility.yul\":4353:4402   */\n      tag_103\n      jump\t// in\n    tag_186:\n        /* \"#utility.yul\":4337:4403   */\n      tag_102\n      jump\t// in\n    tag_185:\n        /* \"#utility.yul\":4328:4403   */\n      swap1\n      pop\n        /* \"#utility.yul\":4426:4432   */\n      dup3\n        /* \"#utility.yul\":4419:4424   */\n      dup2\n        /* \"#utility.yul\":4412:4433   */\n      mstore\n        /* \"#utility.yul\":4464:4468   */\n      0x20\n        /* \"#utility.yul\":4457:4462   */\n      dup2\n        /* \"#utility.yul\":4453:4469   */\n      add\n        /* \"#utility.yul\":4502:4505   */\n      dup5\n        /* \"#utility.yul\":4493:4499   */\n      dup5\n        /* \"#utility.yul\":4488:4491   */\n      dup5\n        /* \"#utility.yul\":4484:4500   */\n      add\n        /* \"#utility.yul\":4481:4506   */\n      gt\n        /* \"#utility.yul\":4478:4590   */\n      iszero\n      tag_187\n      jumpi\n        /* \"#utility.yul\":4509:4588   */\n      tag_188\n      tag_99\n      jump\t// in\n    tag_188:\n        /* \"#utility.yul\":4478:4590   */\n    tag_187:\n        /* \"#utility.yul\":4599:4653   */\n      tag_189\n        /* \"#utility.yul\":4646:4652   */\n      dup5\n        /* \"#utility.yul\":4641:4644   */\n      dup3\n        /* \"#utility.yul\":4636:4639   */\n      dup6\n        /* \"#utility.yul\":4599:4653   */\n      tag_104\n      jump\t// in\n    tag_189:\n        /* \"#utility.yul\":4318:4659   */\n      pop\n        /* \"#utility.yul\":4234:4659   */\n      swap4\n      swap3\n      pop\n      pop\n      pop\n      jump\t// out\n        /* \"#utility.yul\":4679:5019   */\n    tag_106:\n        /* \"#utility.yul\":4735:4740   */\n      0x00\n        /* \"#utility.yul\":4784:4787   */\n      dup3\n        /* \"#utility.yul\":4777:4781   */\n      0x1f\n        /* \"#utility.yul\":4769:4775   */\n      dup4\n        /* \"#utility.yul\":4765:4782   */\n      add\n        /* \"#utility.yul\":4761:4788   */\n      slt\n        /* \"#utility.yul\":4751:4873   */\n      tag_191\n      jumpi\n        /* \"#utility.yul\":4792:4871   */\n      tag_192\n      tag_98\n      jump\t// in\n    tag_192:\n        /* \"#utility.yul\":4751:4873   */\n    tag_191:\n        /* \"#utility.yul\":4909:4915   */\n      dup2\n        /* \"#utility.yul\":4896:4916   */\n      calldataload\n        /* \"#utility.yul\":4934:5013   */\n      tag_193\n        /* \"#utility.yul\":5009:5012   */\n      dup5\n        /* \"#utility.yul\":5001:5007   */\n      dup3\n        /* \"#utility.yul\":4994:4998   */\n      0x20\n        /* \"#utility.yul\":4986:4992   */\n      dup7\n        /* \"#utility.yul\":4982:4999   */\n      add\n        /* \"#utility.yul\":4934:5013   */\n      tag_105\n      jump\t// in\n    tag_193:\n        /* \"#utility.yul\":4925:5013   */\n      swap2\n      pop\n        /* \"#utility.yul\":4741:5019   */\n      pop\n        /* \"#utility.yul\":4679:5019   */\n      swap3\n      swap2\n      pop\n      pop\n      jump\t// out\n        /* \"#utility.yul\":5025:5859   */\n    tag_17:\n        /* \"#utility.yul\":5113:5119   */\n      0x00\n        /* \"#utility.yul\":5121:5127   */\n      dup1\n        /* \"#utility.yul\":5170:5172   */\n      0x40\n        /* \"#utility.yul\":5158:5167   */\n      dup4\n        /* \"#utility.yul\":5149:5156   */\n      dup6\n        /* \"#utility.yul\":5145:5168   */\n      sub\n        /* \"#utility.yul\":5141:5173   */\n      slt\n        /* \"#utility.yul\":5138:5257   */\n      iszero\n      tag_195\n      jumpi\n        /* \"#utility.yul\":5176:5255   */\n      tag_196\n      tag_84\n      jump\t// in\n    tag_196:\n        /* \"#utility.yul\":5138:5257   */\n    tag_195:\n        /* \"#utility.yul\":5324:5325   */\n      0x00\n        /* \"#utility.yul\":5313:5322   */\n      dup4\n        /* \"#utility.yul\":5309:5326   */\n      add\n        /* \"#utility.yul\":5296:5327   */\n      calldataload\n        /* \"#utility.yul\":5354:5372   */\n      0xffffffffffffffff\n        /* \"#utility.yul\":5346:5352   */\n      dup2\n        /* \"#utility.yul\":5343:5373   */\n      gt\n        /* \"#utility.yul\":5340:5457   */\n      iszero\n      tag_197\n      jumpi\n        /* \"#utility.yul\":5376:5455   */\n      tag_198\n      tag_85\n      jump\t// in\n    tag_198:\n        /* \"#utility.yul\":5340:5457   */\n    tag_197:\n        /* \"#utility.yul\":5481:5544   */\n      tag_199\n        /* \"#utility.yul\":5536:5543   */\n      dup6\n        /* \"#utility.yul\":5527:5533   */\n      dup3\n        /* \"#utility.yul\":5516:5525   */\n      dup7\n        /* \"#utility.yul\":5512:5534   */\n      add\n        /* \"#utility.yul\":5481:5544   */\n      tag_106\n      jump\t// in\n    tag_199:\n        /* \"#utility.yul\":5471:5544   */\n      swap3\n      pop\n        /* \"#utility.yul\":5267:5554   */\n      pop\n        /* \"#utility.yul\":5621:5623   */\n      0x20\n        /* \"#utility.yul\":5610:5619   */\n      dup4\n        /* \"#utility.yul\":5606:5624   */\n      add\n        /* \"#utility.yul\":5593:5625   */\n      calldataload\n        /* \"#utility.yul\":5652:5670   */\n      0xffffffffffffffff\n        /* \"#utility.yul\":5644:5650   */\n      dup2\n        /* \"#utility.yul\":5641:5671   */\n      gt\n        /* \"#utility.yul\":5638:5755   */\n      iszero\n      tag_200\n      jumpi\n        /* \"#utility.yul\":5674:5753   */\n      tag_201\n      tag_85\n      jump\t// in\n    tag_201:\n        /* \"#utility.yul\":5638:5755   */\n    tag_200:\n        /* \"#utility.yul\":5779:5842   */\n      tag_202\n        /* \"#utility.yul\":5834:5841   */\n      dup6\n        /* \"#utility.yul\":5825:5831   */\n      dup3\n        /* \"#utility.yul\":5814:5823   */\n      dup7\n        /* \"#utility.yul\":5810:5832   */\n      add\n        /* \"#utility.yul\":5779:5842   */\n      tag_106\n      jump\t// in\n    tag_202:\n        /* \"#utility.yul\":5769:5842   */\n      swap2\n      pop\n        /* \"#utility.yul\":5564:5852   */\n      pop\n        /* \"#utility.yul\":5025:5859   */\n      swap3\n      pop\n      swap3\n      swap1\n      pop\n      jump\t// out\n        /* \"#utility.yul\":5865:5983   */\n    tag_107:\n        /* \"#utility.yul\":5952:5976   */\n      tag_204\n        /* \"#utility.yul\":5970:5975   */\n      dup2\n        /* \"#utility.yul\":5952:5976   */\n      tag_90\n      jump\t// in\n    tag_204:\n        /* \"#utility.yul\":5947:5950   */\n      dup3\n        /* \"#utility.yul\":5940:5977   */\n      mstore\n        /* \"#utility.yul\":5865:5983   */\n      pop\n      pop\n      jump\t// out\n        /* \"#utility.yul\":5989:6613   */\n    tag_29:\n        /* \"#utility.yul\":6178:6182   */\n      0x00\n        /* \"#utility.yul\":6216:6218   */\n      0x60\n        /* \"#utility.yul\":6205:6214   */\n      dup3\n        /* \"#utility.yul\":6201:6219   */\n      add\n        /* \"#utility.yul\":6193:6219   */\n      swap1\n      pop\n        /* \"#utility.yul\":6265:6274   */\n      dup2\n        /* \"#utility.yul\":6259:6263   */\n      dup2\n        /* \"#utility.yul\":6255:6275   */\n      sub\n        /* \"#utility.yul\":6251:6252   */\n      0x00\n        /* \"#utility.yul\":6240:6249   */\n      dup4\n        /* \"#utility.yul\":6236:6253   */\n      add\n        /* \"#utility.yul\":6229:6276   */\n      mstore\n        /* \"#utility.yul\":6293:6371   */\n      tag_206\n        /* \"#utility.yul\":6366:6370   */\n      dup2\n        /* \"#utility.yul\":6357:6363   */\n      dup7\n        /* \"#utility.yul\":6293:6371   */\n      tag_97\n      jump\t// in\n    tag_206:\n        /* \"#utility.yul\":6285:6371   */\n      swap1\n      pop\n        /* \"#utility.yul\":6418:6427   */\n      dup2\n        /* \"#utility.yul\":6412:6416   */\n      dup2\n        /* \"#utility.yul\":6408:6428   */\n      sub\n        /* \"#utility.yul\":6403:6405   */\n      0x20\n        /* \"#utility.yul\":6392:6401   */\n      dup4\n        /* \"#utility.yul\":6388:6406   */\n      add\n        /* \"#utility.yul\":6381:6429   */\n      mstore\n        /* \"#utility.yul\":6446:6524   */\n      tag_207\n        /* \"#utility.yul\":6519:6523   */\n      dup2\n        /* \"#utility.yul\":6510:6516   */\n      dup6\n        /* \"#utility.yul\":6446:6524   */\n      tag_97\n      jump\t// in\n    tag_207:\n        /* \"#utility.yul\":6438:6524   */\n      swap1\n      pop\n        /* \"#utility.yul\":6534:6606   */\n      tag_208\n        /* \"#utility.yul\":6602:6604   */\n      0x40\n        /* \"#utility.yul\":6591:6600   */\n      dup4\n        /* \"#utility.yul\":6587:6605   */\n      add\n        /* \"#utility.yul\":6578:6584   */\n      dup5\n        /* \"#utility.yul\":6534:6606   */\n      tag_107\n      jump\t// in\n    tag_208:\n        /* \"#utility.yul\":5989:6613   */\n      swap5\n      swap4\n      pop\n      pop\n      pop\n      pop\n      jump\t// out\n        /* \"#utility.yul\":6619:6948   */\n    tag_32:\n        /* \"#utility.yul\":6678:6684   */\n      0x00\n        /* \"#utility.yul\":6727:6729   */\n      0x20\n        /* \"#utility.yul\":6715:6724   */\n      dup3\n        /* \"#utility.yul\":6706:6713   */\n      dup5\n        /* \"#utility.yul\":6702:6725   */\n      sub\n        /* \"#utility.yul\":6698:6730   */\n      slt\n        /* \"#utility.yul\":6695:6814   */\n      iszero\n      tag_210\n      jumpi\n        /* \"#utility.yul\":6733:6812   */\n      tag_211\n      tag_84\n      jump\t// in\n    tag_211:\n        /* \"#utility.yul\":6695:6814   */\n    tag_210:\n        /* \"#utility.yul\":6853:6854   */\n      0x00\n        /* \"#utility.yul\":6878:6931   */\n      tag_212\n        /* \"#utility.yul\":6923:6930   */\n      dup5\n        /* \"#utility.yul\":6914:6920   */\n      dup3\n        /* \"#utility.yul\":6903:6912   */\n      dup6\n        /* \"#utility.yul\":6899:6921   */\n      add\n        /* \"#utility.yul\":6878:6931   */\n      tag_89\n      jump\t// in\n    tag_212:\n        /* \"#utility.yul\":6868:6931   */\n      swap2\n      pop\n        /* \"#utility.yul\":6824:6941   */\n      pop\n        /* \"#utility.yul\":6619:6948   */\n      swap3\n      swap2\n      pop\n      pop\n      jump\t// out\n        /* \"#utility.yul\":6954:7176   */\n    tag_35:\n        /* \"#utility.yul\":7047:7051   */\n      0x00\n        /* \"#utility.yul\":7085:7087   */\n      0x20\n        /* \"#utility.yul\":7074:7083   */\n      dup3\n        /* \"#utility.yul\":7070:7088   */\n      add\n        /* \"#utility.yul\":7062:7088   */\n      swap1\n      pop\n        /* \"#utility.yul\":7098:7169   */\n      tag_214\n        /* \"#utility.yul\":7166:7167   */\n      0x00\n        /* \"#utility.yul\":7155:7164   */\n      dup4\n        /* \"#utility.yul\":7151:7168   */\n      add\n        /* \"#utility.yul\":7142:7148   */\n      dup5\n        /* \"#utility.yul\":7098:7169   */\n      tag_107\n      jump\t// in\n    tag_214:\n        /* \"#utility.yul\":6954:7176   */\n      swap3\n      swap2\n      pop\n      pop\n      jump\t// out\n        /* \"#utility.yul\":7182:7362   */\n    tag_108:\n        /* \"#utility.yul\":7230:7307   */\n      0x4e487b7100000000000000000000000000000000000000000000000000000000\n        /* \"#utility.yul\":7227:7228   */\n      0x00\n        /* \"#utility.yul\":7220:7308   */\n      mstore\n        /* \"#utility.yul\":7327:7331   */\n      0x11\n        /* \"#utility.yul\":7324:7325   */\n      0x04\n        /* \"#utility.yul\":7317:7332   */\n      mstore\n        /* \"#utility.yul\":7351:7355   */\n      0x24\n        /* \"#utility.yul\":7348:7349   */\n      0x00\n        /* \"#utility.yul\":7341:7356   */\n      revert\n        /* \"#utility.yul\":7368:7562   */\n    tag_39:\n        /* \"#utility.yul\":7408:7412   */\n      0x00\n        /* \"#utility.yul\":7428:7448   */\n      tag_217\n        /* \"#utility.yul\":7446:7447   */\n      dup3\n        /* \"#utility.yul\":7428:7448   */\n      tag_90\n      jump\t// in\n    tag_217:\n        /* \"#utility.yul\":7423:7448   */\n      swap2\n      pop\n        /* \"#utility.yul\":7462:7482   */\n      tag_218\n        /* \"#utility.yul\":7480:7481   */\n      dup4\n        /* \"#utility.yul\":7462:7482   */\n      tag_90\n      jump\t// in\n    tag_218:\n        /* \"#utility.yul\":7457:7482   */\n      swap3\n      pop\n        /* \"#utility.yul\":7506:7507   */\n      dup3\n        /* \"#utility.yul\":7503:7504   */\n      dup3\n        /* \"#utility.yul\":7499:7508   */\n      sub\n        /* \"#utility.yul\":7491:7508   */\n      swap1\n      pop\n        /* \"#utility.yul\":7530:7531   */\n      dup2\n        /* \"#utility.yul\":7524:7528   */\n      dup2\n        /* \"#utility.yul\":7521:7532   */\n      gt\n        /* \"#utility.yul\":7518:7555   */\n      iszero\n      tag_219\n      jumpi\n        /* \"#utility.yul\":7535:7553   */\n      tag_220\n      tag_108\n      jump\t// in\n    tag_220:\n        /* \"#utility.yul\":7518:7555   */\n    tag_219:\n        /* \"#utility.yul\":7368:7562   */\n      swap3\n      swap2\n      pop\n      pop\n      jump\t// out\n        /* \"#utility.yul\":7568:7748   */\n    tag_109:\n        /* \"#utility.yul\":7616:7693   */\n      0x4e487b7100000000000000000000000000000000000000000000000000000000\n        /* \"#utility.yul\":7613:7614   */\n      0x00\n        /* \"#utility.yul\":7606:7694   */\n      mstore\n        /* \"#utility.yul\":7713:7717   */\n      0x22\n        /* \"#utility.yul\":7710:7711   */\n      0x04\n        /* \"#utility.yul\":7703:7718   */\n      mstore\n        /* \"#utility.yul\":7737:7741   */\n      0x24\n        /* \"#utility.yul\":7734:7735   */\n      0x00\n        /* \"#utility.yul\":7727:7742   */\n      revert\n        /* \"#utility.yul\":7754:8074   */\n    tag_73:\n        /* \"#utility.yul\":7798:7804   */\n      0x00\n        /* \"#utility.yul\":7835:7836   */\n      0x02\n        /* \"#utility.yul\":7829:7833   */\n      dup3\n        /* \"#utility.yul\":7825:7837   */\n      div\n        /* \"#utility.yul\":7815:7837   */\n      swap1\n      pop\n        /* \"#utility.yul\":7882:7883   */\n      0x01\n        /* \"#utility.yul\":7876:7880   */\n      dup3\n        /* \"#utility.yul\":7872:7884   */\n      and\n        /* \"#utility.yul\":7903:7921   */\n      dup1\n        /* \"#utility.yul\":7893:7974   */\n      tag_223\n      jumpi\n        /* \"#utility.yul\":7959:7963   */\n      0x7f\n        /* \"#utility.yul\":7951:7957   */\n      dup3\n        /* \"#utility.yul\":7947:7964   */\n      and\n        /* \"#utility.yul\":7937:7964   */\n      swap2\n      pop\n        /* \"#utility.yul\":7893:7974   */\n    tag_223:\n        /* \"#utility.yul\":8021:8023   */\n      0x20\n        /* \"#utility.yul\":8013:8019   */\n      dup3\n        /* \"#utility.yul\":8010:8024   */\n      lt\n        /* \"#utility.yul\":7990:8008   */\n      dup2\n        /* \"#utility.yul\":7987:8025   */\n      sub\n        /* \"#utility.yul\":7984:8068   */\n      tag_224\n      jumpi\n        /* \"#utility.yul\":8040:8058   */\n      tag_225\n      tag_109\n      jump\t// in\n    tag_225:\n        /* \"#utility.yul\":7984:8068   */\n    tag_224:\n        /* \"#utility.yul\":7805:8074   */\n      pop\n        /* \"#utility.yul\":7754:8074   */\n      swap2\n      swap1\n      pop\n      jump\t// out\n        /* \"#utility.yul\":8080:8221   */\n    tag_110:\n        /* \"#utility.yul\":8129:8133   */\n      0x00\n        /* \"#utility.yul\":8152:8155   */\n      dup2\n        /* \"#utility.yul\":8144:8155   */\n      swap1\n      pop\n        /* \"#utility.yul\":8175:8178   */\n      dup2\n        /* \"#utility.yul\":8172:8173   */\n      0x00\n        /* \"#utility.yul\":8165:8179   */\n      mstore\n        /* \"#utility.yul\":8209:8213   */\n      0x20\n        /* \"#utility.yul\":8206:8207   */\n      0x00\n        /* \"#utility.yul\":8196:8214   */\n      keccak256\n        /* \"#utility.yul\":8188:8214   */\n      swap1\n      pop\n        /* \"#utility.yul\":8080:8221   */\n      swap2\n      swap1\n      pop\n      jump\t// out\n        /* \"#utility.yul\":8227:8320   */\n    tag_111:\n        /* \"#utility.yul\":8264:8270   */\n      0x00\n        /* \"#utility.yul\":8311:8313   */\n      0x20\n        /* \"#utility.yul\":8306:8308   */\n      0x1f\n        /* \"#utility.yul\":8299:8304   */\n      dup4\n        /* \"#utility.yul\":8295:8309   */\n      add\n        /* \"#utility.yul\":8291:8314   */\n      div\n        /* \"#utility.yul\":8281:8314   */\n      swap1\n      pop\n        /* \"#utility.yul\":8227:8320   */\n      swap2\n      swap1\n      pop\n      jump\t// out\n        /* \"#utility.yul\":8326:8433   */\n    tag_112:\n        /* \"#utility.yul\":8370:8378   */\n      0x00\n        /* \"#utility.yul\":8420:8425   */\n      dup3\n        /* \"#utility.yul\":8414:8418   */\n      dup3\n        /* \"#utility.yul\":8410:8426   */\n      shl\n        /* \"#utility.yul\":8389:8426   */\n      swap1\n      pop\n        /* \"#utility.yul\":8326:8433   */\n      swap3\n      swap2\n      pop\n      pop\n      jump\t// out\n        /* \"#utility.yul\":8439:8832   */\n    tag_113:\n        /* \"#utility.yul\":8508:8514   */\n      0x00\n        /* \"#utility.yul\":8558:8559   */\n      0x08\n        /* \"#utility.yul\":8546:8556   */\n      dup4\n        /* \"#utility.yul\":8542:8560   */\n      mul\n        /* \"#utility.yul\":8581:8678   */\n      tag_230\n        /* \"#utility.yul\":8611:8677   */\n      0xffffffffffffffffffffffffffffffffffffffffffffffffffffffffffffffff\n        /* \"#utility.yul\":8600:8609   */\n      dup3\n        /* \"#utility.yul\":8581:8678   */\n      tag_112\n      jump\t// in\n    tag_230:\n        /* \"#utility.yul\":8699:8738   */\n      tag_231\n        /* \"#utility.yul\":8729:8737   */\n      dup7\n        /* \"#utility.yul\":8718:8727   */\n      dup4\n        /* \"#utility.yul\":8699:8738   */\n      tag_112\n      jump\t// in\n    tag_231:\n        /* \"#utility.yul\":8687:8738   */\n      swap6\n      pop\n        /* \"#utility.yul\":8771:8775   */\n      dup1\n        /* \"#utility.yul\":8767:8776   */\n      not\n        /* \"#utility.yul\":8760:8765   */\n      dup5\n        /* \"#utility.yul\":8756:8777   */\n      and\n        /* \"#utility.yul\":8747:8777   */\n      swap4\n      pop\n        /* \"#utility.yul\":8820:8824   */\n      dup1\n        /* \"#utility.yul\":8810:8818   */\n      dup7\n        /* \"#utility.yul\":8806:8825   */\n      and\n        /* \"#utility.yul\":8799:8804   */\n      dup5\n        /* \"#utility.yul\":8796:8826   */\n      or\n        /* \"#utility.yul\":8786:8826   */\n      swap3\n      pop\n        /* \"#utility.yul\":8515:8832   */\n      pop\n      pop\n        /* \"#utility.yul\":8439:8832   */\n      swap4\n      swap3\n      pop\n      pop\n      pop\n      jump\t// out\n        /* \"#utility.yul\":8838:8898   */\n    tag_114:\n        /* \"#utility.yul\":8866:8869   */\n      0x00\n        /* \"#utility.yul\":8887:8892   */\n      dup2\n        /* \"#utility.yul\":8880:8892   */\n      swap1\n      pop\n        /* \"#utility.yul\":8838:8898   */\n      swap2\n      swap1\n      pop\n      jump\t// out\n        /* \"#utility.yul\":8904:9046   */\n    tag_115:\n        /* \"#utility.yul\":8954:8963   */\n      0x00\n        /* \"#utility.yul\":8987:9040   */\n      tag_234\n        /* \"#utility.yul\":9005:9039   */\n      tag_235\n        /* \"#utility.yul\":9014:9038   */\n      tag_236\n        /* \"#utility.yul\":9032:9037   */\n      dup5\n        /* \"#utility.yul\":9014:9038   */\n      tag_90\n      jump\t// in\n    tag_236:\n        /* \"#utility.yul\":9005:9039   */\n      tag_114\n      jump\t// in\n    tag_235:\n        /* \"#utility.yul\":8987:9040   */\n      tag_90\n      jump\t// in\n    tag_234:\n        /* \"#utility.yul\":8974:9040   */\n      swap1\n      pop\n        /* \"#utility.yul\":8904:9046   */\n      swap2\n      swap1\n      pop\n      jump\t// out\n        /* \"#utility.yul\":9052:9127   */\n    tag_116:\n        /* \"#utility.yul\":9095:9098   */\n      0x00\n        /* \"#utility.yul\":9116:9121   */\n      dup2\n        /* \"#utility.yul\":9109:9121   */\n      swap1\n      pop\n        /* \"#utility.yul\":9052:9127   */\n      swap2\n      swap1\n      pop\n      jump\t// out\n        /* \"#utility.yul\":9133:9402   */\n    tag_117:\n        /* \"#utility.yul\":9243:9282   */\n      tag_239\n        /* \"#utility.yul\":9274:9281   */\n      dup4\n        /* \"#utility.yul\":9243:9282   */\n      tag_115\n      jump\t// in\n    tag_239:\n        /* \"#utility.yul\":9304:9395   */\n      tag_240\n        /* \"#utility.yul\":9353:9394   */\n      tag_241\n        /* \"#utility.yul\":9377:9393   */\n      dup3\n        /* \"#utility.yul\":9353:9394   */\n      tag_116\n      jump\t// in\n    tag_241:\n        /* \"#utility.yul\":9345:9351   */\n      dup5\n        /* \"#utility.yul\":9338:9342   */\n      dup5\n        /* \"#utility.yul\":9332:9343   */\n      sload\n        /* \"#utility.yul\":9304:9395   */\n      tag_113\n      jump\t// in\n    tag_240:\n        /* \"#utility.yul\":9298:9302   */\n      dup3\n        /* \"#utility.yul\":9291:9396   */\n      sstore\n        /* \"#utility.yul\":9209:9402   */\n      pop\n        /* \"#utility.yul\":9133:9402   */\n      pop\n      pop\n      pop\n      jump\t// out\n        /* \"#utility.yul\":9408:9481   */\n    tag_118:\n        /* \"#utility.yul\":9453:9456   */\n      0x00\n        /* \"#utility.yul\":9408:9481   */\n      swap1\n      jump\t// out\n        /* \"#utility.yul\":9487:9676   */\n    tag_119:\n        /* \"#utility.yul\":9564:9596   */\n      tag_244\n      tag_118\n      jump\t// in\n    tag_244:\n        /* \"#utility.yul\":9605:9670   */\n      tag_245\n        /* \"#utility.yul\":9663:9669   */\n      dup2\n        /* \"#utility.yul\":9655:9661   */\n      dup5\n        /* \"#utility.yul\":9649:9653   */\n      dup5\n        /* \"#utility.yul\":9605:9670   */\n      tag_117\n      jump\t// in\n    tag_245:\n        /* \"#utility.yul\":9540:9676   */\n      pop\n        /* \"#utility.yul\":9487:9676   */\n      pop\n      pop\n      jump\t// out\n        /* \"#utility.yul\":9682:9868   */\n    tag_120:\n        /* \"#utility.yul\":9742:9862   */\n    tag_247:\n        /* \"#utility.yul\":9759:9762   */\n      dup2\n        /* \"#utility.yul\":9752:9757   */\n      dup2\n        /* \"#utility.yul\":9749:9763   */\n      lt\n        /* \"#utility.yul\":9742:9862   */\n      iszero\n      tag_249\n      jumpi\n        /* \"#utility.yul\":9813:9852   */\n      tag_250\n        /* \"#utility.yul\":9850:9851   */\n      0x00\n        /* \"#utility.yul\":9843:9848   */\n      dup3\n        /* \"#utility.yul\":9813:9852   */\n      tag_119\n      jump\t// in\n    tag_250:\n        /* \"#utility.yul\":9786:9787   */\n      0x01\n        /* \"#utility.yul\":9779:9784   */\n      dup2\n        /* \"#utility.yul\":9775:9788   */\n      add\n        /* \"#utility.yul\":9766:9788   */\n      swap1\n      pop\n        /* \"#utility.yul\":9742:9862   */\n      jump(tag_247)\n    tag_249:\n        /* \"#utility.yul\":9682:9868   */\n      pop\n      pop\n      jump\t// out\n        /* \"#utility.yul\":9874:10417   */\n    tag_121:\n        /* \"#utility.yul\":9975:9977   */\n      0x1f\n        /* \"#utility.yul\":9970:9973   */\n      dup3\n        /* \"#utility.yul\":9967:9978   */\n      gt\n        /* \"#utility.yul\":9964:10410   */\n      iszero\n      tag_252\n      jumpi\n        /* \"#utility.yul\":10009:10047   */\n      tag_253\n        /* \"#utility.yul\":10041:10046   */\n      dup2\n        /* \"#utility.yul\":10009:10047   */\n      tag_110\n      jump\t// in\n    tag_253:\n        /* \"#utility.yul\":10093:10122   */\n      tag_254\n        /* \"#utility.yul\":10111:10121   */\n      dup5\n        /* \"#utility.yul\":10093:10122   */\n      tag_111\n      jump\t// in\n    tag_254:\n        /* \"#utility.yul\":10083:10091   */\n      dup2\n        /* \"#utility.yul\":10079:10123   */\n      add\n        /* \"#utility.yul\":10276:10278   */\n      0x20\n        /* \"#utility.yul\":10264:10274   */\n      dup6\n        /* \"#utility.yul\":10261:10279   */\n      lt\n        /* \"#utility.yul\":10258:10307   */\n      iszero\n      tag_255\n      jumpi\n        /* \"#utility.yul\":10297:10305   */\n      dup2\n        /* \"#utility.yul\":10282:10305   */\n      swap1\n      pop\n        /* \"#utility.yul\":10258:10307   */\n    tag_255:\n        /* \"#utility.yul\":10320:10400   */\n      tag_256\n        /* \"#utility.yul\":10376:10398   */\n      tag_257\n        /* \"#utility.yul\":10394:10397   */\n      dup6\n        /* \"#utility.yul\":10376:10398   */\n      tag_111\n      jump\t// in\n    tag_257:\n        /* \"#utility.yul\":10366:10374   */\n      dup4\n        /* \"#utility.yul\":10362:10399   */\n      add\n        /* \"#utility.yul\":10349:10360   */\n      dup3\n        /* \"#utility.yul\":10320:10400   */\n      tag_120\n      jump\t// in\n    tag_256:\n        /* \"#utility.yul\":9979:10410   */\n      pop\n      pop\n        /* \"#utility.yul\":9964:10410   */\n    tag_252:\n        /* \"#utility.yul\":9874:10417   */\n      pop\n      pop\n      pop\n      jump\t// out\n        /* \"#utility.yul\":10423:10540   */\n    tag_122:\n        /* \"#utility.yul\":10477:10485   */\n      0x00\n        /* \"#utility.yul\":10527:10532   */\n      dup3\n        /* \"#utility.yul\":10521:10525   */\n      dup3\n        /* \"#utility.yul\":10517:10533   */\n      shr\n        /* \"#utility.yul\":10496:10533   */\n      swap1\n      pop\n        /* \"#utility.yul\":10423:10540   */\n      swap3\n      swap2\n      pop\n      pop\n      jump\t// out\n        /* \"#utility.yul\":10546:10715   */\n    tag_123:\n        /* \"#utility.yul\":10590:10596   */\n      0x00\n        /* \"#utility.yul\":10623:10674   */\n      tag_260\n        /* \"#utility.yul\":10671:10672   */\n      0x00\n        /* \"#utility.yul\":10667:10673   */\n      not\n        /* \"#utility.yul\":10659:10664   */\n      dup5\n        /* \"#utility.yul\":10656:10657   */\n      0x08\n        /* \"#utility.yul\":10652:10665   */\n      mul\n        /* \"#utility.yul\":10623:10674   */\n      tag_122\n      jump\t// in\n    tag_260:\n        /* \"#utility.yul\":10619:10675   */\n      not\n        /* \"#utility.yul\":10704:10708   */\n      dup1\n        /* \"#utility.yul\":10698:10702   */\n      dup4\n        /* \"#utility.yul\":10694:10709   */\n      and\n        /* \"#utility.yul\":10684:10709   */\n      swap2\n      pop\n        /* \"#utility.yul\":10597:10715   */\n      pop\n        /* \"#utility.yul\":10546:10715   */\n      swap3\n      swap2\n      pop\n      pop\n      jump\t// out\n        /* \"#utility.yul\":10720:11015   */\n    tag_124:\n        /* \"#utility.yul\":10796:10800   */\n      0x00\n        /* \"#utility.yul\":10942:10971   */\n      tag_262\n        /* \"#utility.yul\":10967:10970   */\n      dup4\n        /* \"#utility.yul\":10961:10965   */\n      dup4\n        /* \"#utility.yul\":10942:10971   */\n      tag_123\n      jump\t// in\n    tag_262:\n        /* \"#utility.yul\":10934:10971   */\n      swap2\n      pop\n        /* \"#utility.yul\":11004:11007   */\n      dup3\n        /* \"#utility.yul\":11001:11002   */\n      0x02\n        /* \"#utility.yul\":10997:11008   */\n      mul\n        /* \"#utility.yul\":10991:10995   */\n      dup3\n        /* \"#utility.yul\":10988:11009   */\n      or\n        /* \"#utility.yul\":10980:11009   */\n      swap1\n      pop\n        /* \"#utility.yul\":10720:11015   */\n      swap3\n      swap2\n      pop\n      pop\n      jump\t// out\n        /* \"#utility.yul\":11020:12415   */\n    tag_43:\n        /* \"#utility.yul\":11137:11174   */\n      tag_264\n        /* \"#utility.yul\":11170:11173   */\n      dup3\n        /* \"#utility.yul\":11137:11174   */\n      tag_93\n      jump\t// in\n    tag_264:\n        /* \"#utility.yul\":11239:11257   */\n      0xffffffffffffffff\n        /* \"#utility.yul\":11231:11237   */\n      dup2\n        /* \"#utility.yul\":11228:11258   */\n      gt\n        /* \"#utility.yul\":11225:11281   */\n      iszero\n      tag_265\n      jumpi\n        /* \"#utility.yul\":11261:11279   */\n      tag_266\n      tag_100\n      jump\t// in\n    tag_266:\n        /* \"#utility.yul\":11225:11281   */\n    tag_265:\n        /* \"#utility.yul\":11305:11343   */\n      tag_267\n        /* \"#utility.yul\":11337:11341   */\n      dup3\n        /* \"#utility.yul\":11331:11342   */\n      sload\n        /* \"#utility.yul\":11305:11343   */\n      tag_73\n      jump\t// in\n    tag_267:\n        /* \"#utility.yul\":11390:11457   */\n      tag_268\n        /* \"#utility.yul\":11450:11456   */\n      dup3\n        /* \"#utility.yul\":11442:11448   */\n      dup3\n        /* \"#utility.yul\":11436:11440   */\n      dup6\n        /* \"#utility.yul\":11390:11457   */\n      tag_121\n      jump\t// in\n    tag_268:\n        /* \"#utility.yul\":11484:11485   */\n      0x00\n        /* \"#utility.yul\":11508:11512   */\n      0x20\n        /* \"#utility.yul\":11495:11512   */\n      swap1\n      pop\n        /* \"#utility.yul\":11540:11542   */\n      0x1f\n        /* \"#utility.yul\":11532:11538   */\n      dup4\n        /* \"#utility.yul\":11529:11543   */\n      gt\n        /* \"#utility.yul\":11557:11558   */\n      0x01\n        /* \"#utility.yul\":11552:12170   */\n      dup2\n      eq\n      tag_270\n      jumpi\n        /* \"#utility.yul\":12214:12215   */\n      0x00\n        /* \"#utility.yul\":12231:12237   */\n      dup5\n        /* \"#utility.yul\":12228:12305   */\n      iszero\n      tag_271\n      jumpi\n        /* \"#utility.yul\":12280:12289   */\n      dup3\n        /* \"#utility.yul\":12275:12278   */\n      dup8\n        /* \"#utility.yul\":12271:12290   */\n      add\n        /* \"#utility.yul\":12265:12291   */\n      mload\n        /* \"#utility.yul\":12256:12291   */\n      swap1\n      pop\n        /* \"#utility.yul\":12228:12305   */\n    tag_271:\n        /* \"#utility.yul\":12331:12398   */\n      tag_272\n        /* \"#utility.yul\":12391:12397   */\n      dup6\n        /* \"#utility.yul\":12384:12389   */\n      dup3\n        /* \"#utility.yul\":12331:12398   */\n      tag_124\n      jump\t// in\n    tag_272:\n        /* \"#utility.yul\":12325:12329   */\n      dup7\n        /* \"#utility.yul\":12318:12399   */\n      sstore\n        /* \"#utility.yul\":12187:12409   */\n      pop\n        /* \"#utility.yul\":11522:12409   */\n      jump(tag_269)\n        /* \"#utility.yul\":11552:12170   */\n    tag_270:\n        /* \"#utility.yul\":11604:11608   */\n      0x1f\n        /* \"#utility.yul\":11600:11609   */\n      not\n        /* \"#utility.yul\":11592:11598   */\n      dup5\n        /* \"#utility.yul\":11588:11610   */\n      and\n        /* \"#utility.yul\":11638:11675   */\n      tag_273\n        /* \"#utility.yul\":11670:11674   */\n      dup7\n        /* \"#utility.yul\":11638:11675   */\n      tag_110\n      jump\t// in\n    tag_273:\n        /* \"#utility.yul\":11697:11698   */\n      0x00\n        /* \"#utility.yul\":11711:11919   */\n    tag_274:\n        /* \"#utility.yul\":11725:11732   */\n      dup3\n        /* \"#utility.yul\":11722:11723   */\n      dup2\n        /* \"#utility.yul\":11719:11733   */\n      lt\n        /* \"#utility.yul\":11711:11919   */\n      iszero\n      tag_276\n      jumpi\n        /* \"#utility.yul\":11804:11813   */\n      dup5\n        /* \"#utility.yul\":11799:11802   */\n      dup10\n        /* \"#utility.yul\":11795:11814   */\n      add\n        /* \"#utility.yul\":11789:11815   */\n      mload\n        /* \"#utility.yul\":11781:11787   */\n      dup3\n        /* \"#utility.yul\":11774:11816   */\n      sstore\n        /* \"#utility.yul\":11855:11856   */\n      0x01\n        /* \"#utility.yul\":11847:11853   */\n      dup3\n        /* \"#utility.yul\":11843:11857   */\n      add\n        /* \"#utility.yul\":11833:11857   */\n      swap2\n      pop\n        /* \"#utility.yul\":11902:11904   */\n      0x20\n        /* \"#utility.yul\":11891:11900   */\n      dup6\n        /* \"#utility.yul\":11887:11905   */\n      add\n        /* \"#utility.yul\":11874:11905   */\n      swap5\n      pop\n        /* \"#utility.yul\":11748:11752   */\n      0x20\n        /* \"#utility.yul\":11745:11746   */\n      dup2\n        /* \"#utility.yul\":11741:11753   */\n      add\n        /* \"#utility.yul\":11736:11753   */\n      swap1\n      pop\n        /* \"#utility.yul\":11711:11919   */\n      jump(tag_274)\n    tag_276:\n        /* \"#utility.yul\":11947:11953   */\n      dup7\n        /* \"#utility.yul\":11938:11945   */\n      dup4\n        /* \"#utility.yul\":11935:11954   */\n      lt\n        /* \"#utility.yul\":11932:12111   */\n      iszero\n      tag_277\n      jumpi\n        /* \"#utility.yul\":12005:12014   */\n      dup5\n        /* \"#utility.yul\":12000:12003   */\n      dup10\n        /* \"#utility.yul\":11996:12015   */\n      add\n        /* \"#utility.yul\":11990:12016   */\n      mload\n        /* \"#utility.yul\":12048:12096   */\n      tag_278\n        /* \"#utility.yul\":12090:12094   */\n      0x1f\n        /* \"#utility.yul\":12082:12088   */\n      dup10\n        /* \"#utility.yul\":12078:12095   */\n      and\n        /* \"#utility.yul\":12067:12076   */\n      dup3\n        /* \"#utility.yul\":12048:12096   */\n      tag_123\n      jump\t// in\n    tag_278:\n        /* \"#utility.yul\":12040:12046   */\n      dup4\n        /* \"#utility.yul\":12033:12097   */\n      sstore\n        /* \"#utility.yul\":11955:12111   */\n      pop\n        /* \"#utility.yul\":11932:12111   */\n    tag_277:\n        /* \"#utility.yul\":12157:12158   */\n      0x01\n        /* \"#utility.yul\":12153:12154   */\n      0x02\n        /* \"#utility.yul\":12145:12151   */\n      dup9\n        /* \"#utility.yul\":12141:12155   */\n      mul\n        /* \"#utility.yul\":12137:12159   */\n      add\n        /* \"#utility.yul\":12131:12135   */\n      dup9\n        /* \"#utility.yul\":12124:12160   */\n      sstore\n        /* \"#utility.yul\":11559:12170   */\n      pop\n      pop\n      pop\n        /* \"#utility.yul\":11522:12409   */\n    tag_269:\n      pop\n        /* \"#utility.yul\":11112:12415   */\n      pop\n      pop\n      pop\n        /* \"#utility.yul\":11020:12415   */\n      pop\n      pop\n      jump\t// out\n        /* \"#utility.yul\":12421:12612   */\n    tag_47:\n        /* \"#utility.yul\":12461:12464   */\n      0x00\n        /* \"#utility.yul\":12480:12500   */\n      tag_280\n        /* \"#utility.yul\":12498:12499   */\n      dup3\n        /* \"#utility.yul\":12480:12500   */\n      tag_90\n      jump\t// in\n    tag_280:\n        /* \"#utility.yul\":12475:12500   */\n      swap2\n      pop\n        /* \"#utility.yul\":12514:12534   */\n      tag_281\n        /* \"#utility.yul\":12532:12533   */\n      dup4\n        /* \"#utility.yul\":12514:12534   */\n      tag_90\n      jump\t// in\n    tag_281:\n        /* \"#utility.yul\":12509:12534   */\n      swap3\n      pop\n        /* \"#utility.yul\":12557:12558   */\n      dup3\n        /* \"#utility.yul\":12554:12555   */\n      dup3\n        /* \"#utility.yul\":12550:12559   */\n      add\n        /* \"#utility.yul\":12543:12559   */\n      swap1\n      pop\n        /* \"#utility.yul\":12578:12581   */\n      dup1\n        /* \"#utility.yul\":12575:12576   */\n      dup3\n        /* \"#utility.yul\":12572:12582   */\n      gt\n        /* \"#utility.yul\":12569:12605   */\n      iszero\n      tag_282\n      jumpi\n        /* \"#utility.yul\":12585:12603   */\n      tag_283\n      tag_108\n      jump\t// in\n    tag_283:\n        /* \"#utility.yul\":12569:12605   */\n    tag_282:\n        /* \"#utility.yul\":12421:12612   */\n      swap3\n      swap2\n      pop\n      pop\n      jump\t// out\n        /* \"#utility.yul\":12618:12766   */\n    tag_125:\n        /* \"#utility.yul\":12720:12731   */\n      0x00\n        /* \"#utility.yul\":12757:12760   */\n      dup2\n        /* \"#utility.yul\":12742:12760   */\n      swap1\n      pop\n        /* \"#utility.yul\":12618:12766   */\n      swap3\n      swap2\n      pop\n      pop\n      jump\t// out\n        /* \"#utility.yul\":12772:12926   */\n    tag_126:\n        /* \"#utility.yul\":12912:12918   */\n      0x4e616d6500000000000000000000000000000000000000000000000000000000\n        /* \"#utility.yul\":12908:12909   */\n      0x00\n        /* \"#utility.yul\":12900:12906   */\n      dup3\n        /* \"#utility.yul\":12896:12910   */\n      add\n        /* \"#utility.yul\":12889:12919   */\n      mstore\n        /* \"#utility.yul\":12772:12926   */\n      pop\n      jump\t// out\n        /* \"#utility.yul\":12932:13332   */\n    tag_127:\n        /* \"#utility.yul\":13092:13095   */\n      0x00\n        /* \"#utility.yul\":13113:13197   */\n      tag_287\n        /* \"#utility.yul\":13195:13196   */\n      0x04\n        /* \"#utility.yul\":13190:13193   */\n      dup4\n        /* \"#utility.yul\":13113:13197   */\n      tag_125\n      jump\t// in\n    tag_287:\n        /* \"#utility.yul\":13106:13197   */\n      swap2\n      pop\n        /* \"#utility.yul\":13206:13299   */\n      tag_288\n        /* \"#utility.yul\":13295:13298   */\n      dup3\n        /* \"#utility.yul\":13206:13299   */\n      tag_126\n      jump\t// in\n    tag_288:\n        /* \"#utility.yul\":13324:13325   */\n      0x04\n        /* \"#utility.yul\":13319:13322   */\n      dup3\n        /* \"#utility.yul\":13315:13326   */\n      add\n        /* \"#utility.yul\":13308:13326   */\n      swap1\n      pop\n        /* \"#utility.yul\":12932:13332   */\n      swap2\n      swap1\n      pop\n      jump\t// out\n        /* \"#utility.yul\":13338:13719   */\n    tag_51:\n        /* \"#utility.yul\":13523:13526   */\n      0x00\n        /* \"#utility.yul\":13545:13693   */\n      tag_290\n        /* \"#utility.yul\":13689:13692   */\n      dup3\n        /* \"#utility.yul\":13545:13693   */\n      tag_127\n      jump\t// in\n    tag_290:\n        /* \"#utility.yul\":13538:13693   */\n      swap2\n      pop\n        /* \"#utility.yul\":13710:13713   */\n      dup2\n        /* \"#utility.yul\":13703:13713   */\n      swap1\n      pop\n        /* \"#utility.yul\":13338:13719   */\n      swap2\n      swap1\n      pop\n      jump\t// out\n        /* \"#utility.yul\":13725:14115   */\n    tag_128:\n        /* \"#utility.yul\":13831:13834   */\n      0x00\n        /* \"#utility.yul\":13859:13898   */\n      tag_292\n        /* \"#utility.yul\":13892:13897   */\n      dup3\n        /* \"#utility.yul\":13859:13898   */\n      tag_93\n      jump\t// in\n    tag_292:\n        /* \"#utility.yul\":13914:14003   */\n      tag_293\n        /* \"#utility.yul\":13996:14002   */\n      dup2\n        /* \"#utility.yul\":13991:13994   */\n      dup6\n        /* \"#utility.yul\":13914:14003   */\n      tag_125\n      jump\t// in\n    tag_293:\n        /* \"#utility.yul\":13907:14003   */\n      swap4\n      pop\n        /* \"#utility.yul\":14012:14077   */\n      tag_294\n        /* \"#utility.yul\":14070:14076   */\n      dup2\n        /* \"#utility.yul\":14065:14068   */\n      dup6\n        /* \"#utility.yul\":14058:14062   */\n      0x20\n        /* \"#utility.yul\":14051:14056   */\n      dup7\n        /* \"#utility.yul\":14047:14063   */\n      add\n        /* \"#utility.yul\":14012:14077   */\n      tag_95\n      jump\t// in\n    tag_294:\n        /* \"#utility.yul\":14102:14108   */\n      dup1\n        /* \"#utility.yul\":14097:14100   */\n      dup5\n        /* \"#utility.yul\":14093:14109   */\n      add\n        /* \"#utility.yul\":14086:14109   */\n      swap2\n      pop\n        /* \"#utility.yul\":13835:14115   */\n      pop\n        /* \"#utility.yul\":13725:14115   */\n      swap3\n      swap2\n      pop\n      pop\n      jump\t// out\n        /* \"#utility.yul\":14121:14396   */\n    tag_53:\n        /* \"#utility.yul\":14253:14256   */\n      0x00\n        /* \"#utility.yul\":14275:14370   */\n      tag_296\n        /* \"#utility.yul\":14366:14369   */\n      dup3\n        /* \"#utility.yul\":14357:14363   */\n      dup5\n        /* \"#utility.yul\":14275:14370   */\n      tag_128\n      jump\t// in\n    tag_296:\n        /* \"#utility.yul\":14268:14370   */\n      swap2\n      pop\n        /* \"#utility.yul\":14387:14390   */\n      dup2\n        /* \"#utility.yul\":14380:14390   */\n      swap1\n      pop\n        /* \"#utility.yul\":14121:14396   */\n      swap3\n      swap2\n      pop\n      pop\n      jump\t// out\n        /* \"#utility.yul\":14402:14556   */\n    tag_129:\n        /* \"#utility.yul\":14542:14548   */\n      0x6e616d6500000000000000000000000000000000000000000000000000000000\n        /* \"#utility.yul\":14538:14539   */\n      0x00\n        /* \"#utility.yul\":14530:14536   */\n      dup3\n        /* \"#utility.yul\":14526:14540   */\n      add\n        /* \"#utility.yul\":14519:14549   */\n      mstore\n        /* \"#utility.yul\":14402:14556   */\n      pop\n      jump\t// out\n        /* \"#utility.yul\":14562:14962   */\n    tag_130:\n        /* \"#utility.yul\":14722:14725   */\n      0x00\n        /* \"#utility.yul\":14743:14827   */\n      tag_299\n        /* \"#utility.yul\":14825:14826   */\n      0x04\n        /* \"#utility.yul\":14820:14823   */\n      dup4\n        /* \"#utility.yul\":14743:14827   */\n      tag_125\n      jump\t// in\n    tag_299:\n        /* \"#utility.yul\":14736:14827   */\n      swap2\n      pop\n        /* \"#utility.yul\":14836:14929   */\n      tag_300\n        /* \"#utility.yul\":14925:14928   */\n      dup3\n        /* \"#utility.yul\":14836:14929   */\n      tag_129\n      jump\t// in\n    tag_300:\n        /* \"#utility.yul\":14954:14955   */\n      0x04\n        /* \"#utility.yul\":14949:14952   */\n      dup3\n        /* \"#utility.yul\":14945:14956   */\n      add\n        /* \"#utility.yul\":14938:14956   */\n      swap1\n      pop\n        /* \"#utility.yul\":14562:14962   */\n      swap2\n      swap1\n      pop\n      jump\t// out\n        /* \"#utility.yul\":14968:15349   */\n    tag_56:\n        /* \"#utility.yul\":15153:15156   */\n      0x00\n        /* \"#utility.yul\":15175:15323   */\n      tag_302\n        /* \"#utility.yul\":15319:15322   */\n      dup3\n        /* \"#utility.yul\":15175:15323   */\n      tag_130\n      jump\t// in\n    tag_302:\n        /* \"#utility.yul\":15168:15323   */\n      swap2\n      pop\n        /* \"#utility.yul\":15340:15343   */\n      dup2\n        /* \"#utility.yul\":15333:15343   */\n      swap1\n      pop\n        /* \"#utility.yul\":14968:15349   */\n      swap2\n      swap1\n      pop\n      jump\t// out\n        /* \"#utility.yul\":15355:15509   */\n    tag_131:\n        /* \"#utility.yul\":15495:15501   */\n      0x4162627200000000000000000000000000000000000000000000000000000000\n        /* \"#utility.yul\":15491:15492   */\n      0x00\n        /* \"#utility.yul\":15483:15489   */\n      dup3\n        /* \"#utility.yul\":15479:15493   */\n      add\n        /* \"#utility.yul\":15472:15502   */\n      mstore\n        /* \"#utility.yul\":15355:15509   */\n      pop\n      jump\t// out\n        /* \"#utility.yul\":15515:15915   */\n    tag_132:\n        /* \"#utility.yul\":15675:15678   */\n      0x00\n        /* \"#utility.yul\":15696:15780   */\n      tag_305\n        /* \"#utility.yul\":15778:15779   */\n      0x04\n        /* \"#utility.yul\":15773:15776   */\n      dup4\n        /* \"#utility.yul\":15696:15780   */\n      tag_125\n      jump\t// in\n    tag_305:\n        /* \"#utility.yul\":15689:15780   */\n      swap2\n      pop\n        /* \"#utility.yul\":15789:15882   */\n      tag_306\n        /* \"#utility.yul\":15878:15881   */\n      dup3\n        /* \"#utility.yul\":15789:15882   */\n      tag_131\n      jump\t// in\n    tag_306:\n        /* \"#utility.yul\":15907:15908   */\n      0x04\n        /* \"#utility.yul\":15902:15905   */\n      dup3\n        /* \"#utility.yul\":15898:15909   */\n      add\n        /* \"#utility.yul\":15891:15909   */\n      swap1\n      pop\n        /* \"#utility.yul\":15515:15915   */\n      swap2\n      swap1\n      pop\n      jump\t// out\n        /* \"#utility.yul\":15921:16302   */\n    tag_62:\n        /* \"#utility.yul\":16106:16109   */\n      0x00\n        /* \"#utility.yul\":16128:16276   */\n      tag_308\n        /* \"#utility.yul\":16272:16275   */\n      dup3\n        /* \"#utility.yul\":16128:16276   */\n      tag_132\n      jump\t// in\n    tag_308:\n        /* \"#utility.yul\":16121:16276   */\n      swap2\n      pop\n        /* \"#utility.yul\":16293:16296   */\n      dup2\n        /* \"#utility.yul\":16286:16296   */\n      swap1\n      pop\n        /* \"#utility.yul\":15921:16302   */\n      swap2\n      swap1\n      pop\n      jump\t// out\n        /* \"#utility.yul\":16308:16462   */\n    tag_133:\n        /* \"#utility.yul\":16448:16454   */\n      0x6162627200000000000000000000000000000000000000000000000000000000\n        /* \"#utility.yul\":16444:16445   */\n      0x00\n        /* \"#utility.yul\":16436:16442   */\n      dup3\n        /* \"#utility.yul\":16432:16446   */\n      add\n        /* \"#utility.yul\":16425:16455   */\n      mstore\n        /* \"#utility.yul\":16308:16462   */\n      pop\n      jump\t// out\n        /* \"#utility.yul\":16468:16868   */\n    tag_134:\n        /* \"#utility.yul\":16628:16631   */\n      0x00\n        /* \"#utility.yul\":16649:16733   */\n      tag_311\n        /* \"#utility.yul\":16731:16732   */\n      0x04\n        /* \"#utility.yul\":16726:16729   */\n      dup4\n        /* \"#utility.yul\":16649:16733   */\n      tag_125\n      jump\t// in\n    tag_311:\n        /* \"#utility.yul\":16642:16733   */\n      swap2\n      pop\n        /* \"#utility.yul\":16742:16835   */\n      tag_312\n        /* \"#utility.yul\":16831:16834   */\n      dup3\n        /* \"#utility.yul\":16742:16835   */\n      tag_133\n      jump\t// in\n    tag_312:\n        /* \"#utility.yul\":16860:16861   */\n      0x04\n        /* \"#utility.yul\":16855:16858   */\n      dup3\n        /* \"#utility.yul\":16851:16862   */\n      add\n        /* \"#utility.yul\":16844:16862   */\n      swap1\n      pop\n        /* \"#utility.yul\":16468:16868   */\n      swap2\n      swap1\n      pop\n      jump\t// out\n        /* \"#utility.yul\":16874:17255   */\n    tag_66:\n        /* \"#utility.yul\":17059:17062   */\n      0x00\n        /* \"#utility.yul\":17081:17229   */\n      tag_314\n        /* \"#utility.yul\":17225:17228   */\n      dup3\n        /* \"#utility.yul\":17081:17229   */\n      tag_134\n      jump\t// in\n    tag_314:\n        /* \"#utility.yul\":17074:17229   */\n      swap2\n      pop\n        /* \"#utility.yul\":17246:17249   */\n      dup2\n        /* \"#utility.yul\":17239:17249   */\n      swap1\n      pop\n        /* \"#utility.yul\":16874:17255   */\n      swap2\n      swap1\n      pop\n      jump\t// out\n\n    auxdata: 0xa2646970667358221220a83a797e9afc87782364aea209c3f0902e18b6f445eb8e55a130db1e4557193f64736f6c63430008190033\n}\n",
				"bytecode": {
					"linkReferences": {},
					"object": "6080604052348015600e575f80fd5b50610f608061001c5f395ff3fe608060405234801561000f575f80fd5b5060043610610060575f3560e01c806308e528ac146100645780633fbf11c11461009457806340c10f19146100b057806351728e5a146100cc578063bac6522c146100fc578063e3d670d71461011c575b5f80fd5b61007e60048036038101906100799190610700565b61014c565b60405161008b91906107ae565b60405180910390f35b6100ae60048036038101906100a991906108fa565b61025f565b005b6100ca60048036038101906100c59190610700565b610287565b005b6100e660048036038101906100e191906108fa565b6102f8565b6040516100f391906107ae565b60405180910390f35b610104610523565b6040516101139392919061097f565b60405180910390f35b610136600480360381019061013191906109c2565b61064e565b60405161014391906109ed565b60405180910390f35b6060815f808573ffffffffffffffffffffffffffffffffffffffff1673ffffffffffffffffffffffffffffffffffffffff1681526020019081526020015f20541061022057815f808573ffffffffffffffffffffffffffffffffffffffff1673ffffffffffffffffffffffffffffffffffffffff1681526020019081526020015f205f8282546101dc9190610a33565b925050819055506040518060400160405280601181526020017f557064617465205375636365737366756c0000000000000000000000000000008152509050610259565b6040518060400160405280601281526020017f4e6f7420456e6f7567682042616c616e6365000000000000000000000000000081525090505b92915050565b8160015f0190816102709190610c60565b50806001800190816102829190610c60565b505050565b805f808473ffffffffffffffffffffffffffffffffffffffff1673ffffffffffffffffffffffffffffffffffffffff1681526020019081526020015f205f8282546102d29190610d2f565b925050819055508060016002015f8282546102ed9190610d2f565b925050819055505050565b606060405160200161030990610db6565b60405160208183030381529060405280519060200120836040516020016103309190610dfa565b60405160208183030381529060405280519060200120148061039b575060405160200161035c90610e5a565b60405160208183030381529060405280519060200120836040516020016103839190610dfa565b60405160208183030381529060405280519060200120145b156103ef578160015f0190816103b19190610c60565b506040518060400160405280601181526020017f557064617465205375636365737366756c000000000000000000000000000000815250905061051d565b6040516020016103fe90610eb8565b60405160208183030381529060405280519060200120836040516020016104259190610dfa565b604051602081830303815290604052805190602001201480610490575060405160200161045190610f16565b60405160208183030381529060405280519060200120836040516020016104789190610dfa565b60405160208183030381529060405280519060200120145b156104e457816001800190816104a69190610c60565b506040518060400160405280601181526020017f557064617465205375636365737366756c000000000000000000000000000000815250905061051d565b6040518060400160405280601181526020017f496e76616c69642052657175657374202100000000000000000000000000000081525090505b92915050565b6060805f60015f01805461053690610a93565b80601f016020809104026020016040519081016040528092919081815260200182805461056290610a93565b80156105ad5780601f10610584576101008083540402835291602001916105ad565b820191905f5260205f20905b81548152906001019060200180831161059057829003601f168201915b505050505092506001800180546105c390610a93565b80601f01602080910402602001604051908101604052809291908181526020018280546105ef90610a93565b801561063a5780601f106106115761010080835404028352916020019161063a565b820191905f5260205f20905b81548152906001019060200180831161061d57829003601f168201915b505050505091506001600201549050909192565b5f602052805f5260405f205f915090505481565b5f604051905090565b5f80fd5b5f80fd5b5f73ffffffffffffffffffffffffffffffffffffffff82169050919050565b5f61069c82610673565b9050919050565b6106ac81610692565b81146106b6575f80fd5b50565b5f813590506106c7816106a3565b92915050565b5f819050919050565b6106df816106cd565b81146106e9575f80fd5b50565b5f813590506106fa816106d6565b92915050565b5f80604083850312156107165761071561066b565b5b5f610723858286016106b9565b9250506020610734858286016106ec565b9150509250929050565b5f81519050919050565b5f82825260208201905092915050565b8281835e5f83830152505050565b5f601f19601f8301169050919050565b5f6107808261073e565b61078a8185610748565b935061079a818560208601610758565b6107a381610766565b840191505092915050565b5f6020820190508181035f8301526107c68184610776565b905092915050565b5f80fd5b5f80fd5b7f4e487b71000000000000000000000000000000000000000000000000000000005f52604160045260245ffd5b61080c82610766565b810181811067ffffffffffffffff8211171561082b5761082a6107d6565b5b80604052505050565b5f61083d610662565b90506108498282610803565b919050565b5f67ffffffffffffffff821115610868576108676107d6565b5b61087182610766565b9050602081019050919050565b828183375f83830152505050565b5f61089e6108998461084e565b610834565b9050828152602081018484840111156108ba576108b96107d2565b5b6108c584828561087e565b509392505050565b5f82601f8301126108e1576108e06107ce565b5b81356108f184826020860161088c565b91505092915050565b5f80604083850312156109105761090f61066b565b5b5f83013567ffffffffffffffff81111561092d5761092c61066f565b5b610939858286016108cd565b925050602083013567ffffffffffffffff81111561095a5761095961066f565b5b610966858286016108cd565b9150509250929050565b610979816106cd565b82525050565b5f6060820190508181035f8301526109978186610776565b905081810360208301526109ab8185610776565b90506109ba6040830184610970565b949350505050565b5f602082840312156109d7576109d661066b565b5b5f6109e4848285016106b9565b91505092915050565b5f602082019050610a005f830184610970565b92915050565b7f4e487b71000000000000000000000000000000000000000000000000000000005f52601160045260245ffd5b5f610a3d826106cd565b9150610a48836106cd565b9250828203905081811115610a6057610a5f610a06565b5b92915050565b7f4e487b71000000000000000000000000000000000000000000000000000000005f52602260045260245ffd5b5f6002820490506001821680610aaa57607f821691505b602082108103610abd57610abc610a66565b5b50919050565b5f819050815f5260205f209050919050565b5f6020601f8301049050919050565b5f82821b905092915050565b5f60088302610b1f7fffffffffffffffffffffffffffffffffffffffffffffffffffffffffffffffff82610ae4565b610b298683610ae4565b95508019841693508086168417925050509392505050565b5f819050919050565b5f610b64610b5f610b5a846106cd565b610b41565b6106cd565b9050919050565b5f819050919050565b610b7d83610b4a565b610b91610b8982610b6b565b848454610af0565b825550505050565b5f90565b610ba5610b99565b610bb0818484610b74565b505050565b5b81811015610bd357610bc85f82610b9d565b600181019050610bb6565b5050565b601f821115610c1857610be981610ac3565b610bf284610ad5565b81016020851015610c01578190505b610c15610c0d85610ad5565b830182610bb5565b50505b505050565b5f82821c905092915050565b5f610c385f1984600802610c1d565b1980831691505092915050565b5f610c508383610c29565b9150826002028217905092915050565b610c698261073e565b67ffffffffffffffff811115610c8257610c816107d6565b5b610c8c8254610a93565b610c97828285610bd7565b5f60209050601f831160018114610cc8575f8415610cb6578287015190505b610cc08582610c45565b865550610d27565b601f198416610cd686610ac3565b5f5b82811015610cfd57848901518255600182019150602085019450602081019050610cd8565b86831015610d1a5784890151610d16601f891682610c29565b8355505b6001600288020188555050505b505050505050565b5f610d39826106cd565b9150610d44836106cd565b9250828201905080821115610d5c57610d5b610a06565b5b92915050565b5f81905092915050565b7f4e616d65000000000000000000000000000000000000000000000000000000005f82015250565b5f610da0600483610d62565b9150610dab82610d6c565b600482019050919050565b5f610dc082610d94565b9150819050919050565b5f610dd48261073e565b610dde8185610d62565b9350610dee818560208601610758565b80840191505092915050565b5f610e058284610dca565b915081905092915050565b7f6e616d65000000000000000000000000000000000000000000000000000000005f82015250565b5f610e44600483610d62565b9150610e4f82610e10565b600482019050919050565b5f610e6482610e38565b9150819050919050565b7f41626272000000000000000000000000000000000000000000000000000000005f82015250565b5f610ea2600483610d62565b9150610ead82610e6e565b600482019050919050565b5f610ec282610e96565b9150819050919050565b7f61626272000000000000000000000000000000000000000000000000000000005f82015250565b5f610f00600483610d62565b9150610f0b82610ecc565b600482019050919050565b5f610f2082610ef4565b915081905091905056fea2646970667358221220a83a797e9afc87782364aea209c3f0902e18b6f445eb8e55a130db1e4557193f64736f6c63430008190033",
					"opcodes": "PUSH1 0x80 PUSH1 0x40 MSTORE CALLVALUE DUP1 ISZERO PUSH1 0xE JUMPI PUSH0 DUP1 REVERT JUMPDEST POP PUSH2 0xF60 DUP1 PUSH2 0x1C PUSH0 CODECOPY PUSH0 RETURN INVALID PUSH1 0x80 PUSH1 0x40 MSTORE CALLVALUE DUP1 ISZERO PUSH2 0xF JUMPI PUSH0 DUP1 REVERT JUMPDEST POP PUSH1 0x4 CALLDATASIZE LT PUSH2 0x60 JUMPI PUSH0 CALLDATALOAD PUSH1 0xE0 SHR DUP1 PUSH4 0x8E528AC EQ PUSH2 0x64 JUMPI DUP1 PUSH4 0x3FBF11C1 EQ PUSH2 0x94 JUMPI DUP1 PUSH4 0x40C10F19 EQ PUSH2 0xB0 JUMPI DUP1 PUSH4 0x51728E5A EQ PUSH2 0xCC JUMPI DUP1 PUSH4 0xBAC6522C EQ PUSH2 0xFC JUMPI DUP1 PUSH4 0xE3D670D7 EQ PUSH2 0x11C JUMPI JUMPDEST PUSH0 DUP1 REVERT JUMPDEST PUSH2 0x7E PUSH1 0x4 DUP1 CALLDATASIZE SUB DUP2 ADD SWAP1 PUSH2 0x79 SWAP2 SWAP1 PUSH2 0x700 JUMP JUMPDEST PUSH2 0x14C JUMP JUMPDEST PUSH1 0x40 MLOAD PUSH2 0x8B SWAP2 SWAP1 PUSH2 0x7AE JUMP JUMPDEST PUSH1 0x40 MLOAD DUP1 SWAP2 SUB SWAP1 RETURN JUMPDEST PUSH2 0xAE PUSH1 0x4 DUP1 CALLDATASIZE SUB DUP2 ADD SWAP1 PUSH2 0xA9 SWAP2 SWAP1 PUSH2 0x8FA JUMP JUMPDEST PUSH2 0x25F JUMP JUMPDEST STOP JUMPDEST PUSH2 0xCA PUSH1 0x4 DUP1 CALLDATASIZE SUB DUP2 ADD SWAP1 PUSH2 0xC5 SWAP2 SWAP1 PUSH2 0x700 JUMP JUMPDEST PUSH2 0x287 JUMP JUMPDEST STOP JUMPDEST PUSH2 0xE6 PUSH1 0x4 DUP1 CALLDATASIZE SUB DUP2 ADD SWAP1 PUSH2 0xE1 SWAP2 SWAP1 PUSH2 0x8FA JUMP JUMPDEST PUSH2 0x2F8 JUMP JUMPDEST PUSH1 0x40 MLOAD PUSH2 0xF3 SWAP2 SWAP1 PUSH2 0x7AE JUMP JUMPDEST PUSH1 0x40 MLOAD DUP1 SWAP2 SUB SWAP1 RETURN JUMPDEST PUSH2 0x104 PUSH2 0x523 JUMP JUMPDEST PUSH1 0x40 MLOAD PUSH2 0x113 SWAP4 SWAP3 SWAP2 SWAP1 PUSH2 0x97F JUMP JUMPDEST PUSH1 0x40 MLOAD DUP1 SWAP2 SUB SWAP1 RETURN JUMPDEST PUSH2 0x136 PUSH1 0x4 DUP1 CALLDATASIZE SUB DUP2 ADD SWAP1 PUSH2 0x131 SWAP2 SWAP1 PUSH2 0x9C2 JUMP JUMPDEST PUSH2 0x64E JUMP JUMPDEST PUSH1 0x40 MLOAD PUSH2 0x143 SWAP2 SWAP1 PUSH2 0x9ED JUMP JUMPDEST PUSH1 0x40 MLOAD DUP1 SWAP2 SUB SWAP1 RETURN JUMPDEST PUSH1 0x60 DUP2 PUSH0 DUP1 DUP6 PUSH20 0xFFFFFFFFFFFFFFFFFFFFFFFFFFFFFFFFFFFFFFFF AND PUSH20 0xFFFFFFFFFFFFFFFFFFFFFFFFFFFFFFFFFFFFFFFF AND DUP2 MSTORE PUSH1 0x20 ADD SWAP1 DUP2 MSTORE PUSH1 0x20 ADD PUSH0 KECCAK256 SLOAD LT PUSH2 0x220 JUMPI DUP2 PUSH0 DUP1 DUP6 PUSH20 0xFFFFFFFFFFFFFFFFFFFFFFFFFFFFFFFFFFFFFFFF AND PUSH20 0xFFFFFFFFFFFFFFFFFFFFFFFFFFFFFFFFFFFFFFFF AND DUP2 MSTORE PUSH1 0x20 ADD SWAP1 DUP2 MSTORE PUSH1 0x20 ADD PUSH0 KECCAK256 PUSH0 DUP3 DUP3 SLOAD PUSH2 0x1DC SWAP2 SWAP1 PUSH2 0xA33 JUMP JUMPDEST SWAP3 POP POP DUP2 SWAP1 SSTORE POP PUSH1 0x40 MLOAD DUP1 PUSH1 0x40 ADD PUSH1 0x40 MSTORE DUP1 PUSH1 0x11 DUP2 MSTORE PUSH1 0x20 ADD PUSH32 0x557064617465205375636365737366756C000000000000000000000000000000 DUP2 MSTORE POP SWAP1 POP PUSH2 0x259 JUMP JUMPDEST PUSH1 0x40 MLOAD DUP1 PUSH1 0x40 ADD PUSH1 0x40 MSTORE DUP1 PUSH1 0x12 DUP2 MSTORE PUSH1 0x20 ADD PUSH32 0x4E6F7420456E6F7567682042616C616E63650000000000000000000000000000 DUP2 MSTORE POP SWAP1 POP JUMPDEST SWAP3 SWAP2 POP POP JUMP JUMPDEST DUP2 PUSH1 0x1 PUSH0 ADD SWAP1 DUP2 PUSH2 0x270 SWAP2 SWAP1 PUSH2 0xC60 JUMP JUMPDEST POP DUP1 PUSH1 0x1 DUP1 ADD SWAP1 DUP2 PUSH2 0x282 SWAP2 SWAP1 PUSH2 0xC60 JUMP JUMPDEST POP POP POP JUMP JUMPDEST DUP1 PUSH0 DUP1 DUP5 PUSH20 0xFFFFFFFFFFFFFFFFFFFFFFFFFFFFFFFFFFFFFFFF AND PUSH20 0xFFFFFFFFFFFFFFFFFFFFFFFFFFFFFFFFFFFFFFFF AND DUP2 MSTORE PUSH1 0x20 ADD SWAP1 DUP2 MSTORE PUSH1 0x20 ADD PUSH0 KECCAK256 PUSH0 DUP3 DUP3 SLOAD PUSH2 0x2D2 SWAP2 SWAP1 PUSH2 0xD2F JUMP JUMPDEST SWAP3 POP POP DUP2 SWAP1 SSTORE POP DUP1 PUSH1 0x1 PUSH1 0x2 ADD PUSH0 DUP3 DUP3 SLOAD PUSH2 0x2ED SWAP2 SWAP1 PUSH2 0xD2F JUMP JUMPDEST SWAP3 POP POP DUP2 SWAP1 SSTORE POP POP POP JUMP JUMPDEST PUSH1 0x60 PUSH1 0x40 MLOAD PUSH1 0x20 ADD PUSH2 0x309 SWAP1 PUSH2 0xDB6 JUMP JUMPDEST PUSH1 0x40 MLOAD PUSH1 0x20 DUP2 DUP4 SUB SUB DUP2 MSTORE SWAP1 PUSH1 0x40 MSTORE DUP1 MLOAD SWAP1 PUSH1 0x20 ADD KECCAK256 DUP4 PUSH1 0x40 MLOAD PUSH1 0x20 ADD PUSH2 0x330 SWAP2 SWAP1 PUSH2 0xDFA JUMP JUMPDEST PUSH1 0x40 MLOAD PUSH1 0x20 DUP2 DUP4 SUB SUB DUP2 MSTORE SWAP1 PUSH1 0x40 MSTORE DUP1 MLOAD SWAP1 PUSH1 0x20 ADD KECCAK256 EQ DUP1 PUSH2 0x39B JUMPI POP PUSH1 0x40 MLOAD PUSH1 0x20 ADD PUSH2 0x35C SWAP1 PUSH2 0xE5A JUMP JUMPDEST PUSH1 0x40 MLOAD PUSH1 0x20 DUP2 DUP4 SUB SUB DUP2 MSTORE SWAP1 PUSH1 0x40 MSTORE DUP1 MLOAD SWAP1 PUSH1 0x20 ADD KECCAK256 DUP4 PUSH1 0x40 MLOAD PUSH1 0x20 ADD PUSH2 0x383 SWAP2 SWAP1 PUSH2 0xDFA JUMP JUMPDEST PUSH1 0x40 MLOAD PUSH1 0x20 DUP2 DUP4 SUB SUB DUP2 MSTORE SWAP1 PUSH1 0x40 MSTORE DUP1 MLOAD SWAP1 PUSH1 0x20 ADD KECCAK256 EQ JUMPDEST ISZERO PUSH2 0x3EF JUMPI DUP2 PUSH1 0x1 PUSH0 ADD SWAP1 DUP2 PUSH2 0x3B1 SWAP2 SWAP1 PUSH2 0xC60 JUMP JUMPDEST POP PUSH1 0x40 MLOAD DUP1 PUSH1 0x40 ADD PUSH1 0x40 MSTORE DUP1 PUSH1 0x11 DUP2 MSTORE PUSH1 0x20 ADD PUSH32 0x557064617465205375636365737366756C000000000000000000000000000000 DUP2 MSTORE POP SWAP1 POP PUSH2 0x51D JUMP JUMPDEST PUSH1 0x40 MLOAD PUSH1 0x20 ADD PUSH2 0x3FE SWAP1 PUSH2 0xEB8 JUMP JUMPDEST PUSH1 0x40 MLOAD PUSH1 0x20 DUP2 DUP4 SUB SUB DUP2 MSTORE SWAP1 PUSH1 0x40 MSTORE DUP1 MLOAD SWAP1 PUSH1 0x20 ADD KECCAK256 DUP4 PUSH1 0x40 MLOAD PUSH1 0x20 ADD PUSH2 0x425 SWAP2 SWAP1 PUSH2 0xDFA JUMP JUMPDEST PUSH1 0x40 MLOAD PUSH1 0x20 DUP2 DUP4 SUB SUB DUP2 MSTORE SWAP1 PUSH1 0x40 MSTORE DUP1 MLOAD SWAP1 PUSH1 0x20 ADD KECCAK256 EQ DUP1 PUSH2 0x490 JUMPI POP PUSH1 0x40 MLOAD PUSH1 0x20 ADD PUSH2 0x451 SWAP1 PUSH2 0xF16 JUMP JUMPDEST PUSH1 0x40 MLOAD PUSH1 0x20 DUP2 DUP4 SUB SUB DUP2 MSTORE SWAP1 PUSH1 0x40 MSTORE DUP1 MLOAD SWAP1 PUSH1 0x20 ADD KECCAK256 DUP4 PUSH1 0x40 MLOAD PUSH1 0x20 ADD PUSH2 0x478 SWAP2 SWAP1 PUSH2 0xDFA JUMP JUMPDEST PUSH1 0x40 MLOAD PUSH1 0x20 DUP2 DUP4 SUB SUB DUP2 MSTORE SWAP1 PUSH1 0x40 MSTORE DUP1 MLOAD SWAP1 PUSH1 0x20 ADD KECCAK256 EQ JUMPDEST ISZERO PUSH2 0x4E4 JUMPI DUP2 PUSH1 0x1 DUP1 ADD SWAP1 DUP2 PUSH2 0x4A6 SWAP2 SWAP1 PUSH2 0xC60 JUMP JUMPDEST POP PUSH1 0x40 MLOAD DUP1 PUSH1 0x40 ADD PUSH1 0x40 MSTORE DUP1 PUSH1 0x11 DUP2 MSTORE PUSH1 0x20 ADD PUSH32 0x557064617465205375636365737366756C000000000000000000000000000000 DUP2 MSTORE POP SWAP1 POP PUSH2 0x51D JUMP JUMPDEST PUSH1 0x40 MLOAD DUP1 PUSH1 0x40 ADD PUSH1 0x40 MSTORE DUP1 PUSH1 0x11 DUP2 MSTORE PUSH1 0x20 ADD PUSH32 0x496E76616C696420526571756573742021000000000000000000000000000000 DUP2 MSTORE POP SWAP1 POP JUMPDEST SWAP3 SWAP2 POP POP JUMP JUMPDEST PUSH1 0x60 DUP1 PUSH0 PUSH1 0x1 PUSH0 ADD DUP1 SLOAD PUSH2 0x536 SWAP1 PUSH2 0xA93 JUMP JUMPDEST DUP1 PUSH1 0x1F ADD PUSH1 0x20 DUP1 SWAP2 DIV MUL PUSH1 0x20 ADD PUSH1 0x40 MLOAD SWAP1 DUP2 ADD PUSH1 0x40 MSTORE DUP1 SWAP3 SWAP2 SWAP1 DUP2 DUP2 MSTORE PUSH1 0x20 ADD DUP3 DUP1 SLOAD PUSH2 0x562 SWAP1 PUSH2 0xA93 JUMP JUMPDEST DUP1 ISZERO PUSH2 0x5AD JUMPI DUP1 PUSH1 0x1F LT PUSH2 0x584 JUMPI PUSH2 0x100 DUP1 DUP4 SLOAD DIV MUL DUP4 MSTORE SWAP2 PUSH1 0x20 ADD SWAP2 PUSH2 0x5AD JUMP JUMPDEST DUP3 ADD SWAP2 SWAP1 PUSH0 MSTORE PUSH1 0x20 PUSH0 KECCAK256 SWAP1 JUMPDEST DUP2 SLOAD DUP2 MSTORE SWAP1 PUSH1 0x1 ADD SWAP1 PUSH1 0x20 ADD DUP1 DUP4 GT PUSH2 0x590 JUMPI DUP3 SWAP1 SUB PUSH1 0x1F AND DUP3 ADD SWAP2 JUMPDEST POP POP POP POP POP SWAP3 POP PUSH1 0x1 DUP1 ADD DUP1 SLOAD PUSH2 0x5C3 SWAP1 PUSH2 0xA93 JUMP JUMPDEST DUP1 PUSH1 0x1F ADD PUSH1 0x20 DUP1 SWAP2 DIV MUL PUSH1 0x20 ADD PUSH1 0x40 MLOAD SWAP1 DUP2 ADD PUSH1 0x40 MSTORE DUP1 SWAP3 SWAP2 SWAP1 DUP2 DUP2 MSTORE PUSH1 0x20 ADD DUP3 DUP1 SLOAD PUSH2 0x5EF SWAP1 PUSH2 0xA93 JUMP JUMPDEST DUP1 ISZERO PUSH2 0x63A JUMPI DUP1 PUSH1 0x1F LT PUSH2 0x611 JUMPI PUSH2 0x100 DUP1 DUP4 SLOAD DIV MUL DUP4 MSTORE SWAP2 PUSH1 0x20 ADD SWAP2 PUSH2 0x63A JUMP JUMPDEST DUP3 ADD SWAP2 SWAP1 PUSH0 MSTORE PUSH1 0x20 PUSH0 KECCAK256 SWAP1 JUMPDEST DUP2 SLOAD DUP2 MSTORE SWAP1 PUSH1 0x1 ADD SWAP1 PUSH1 0x20 ADD DUP1 DUP4 GT PUSH2 0x61D JUMPI DUP3 SWAP1 SUB PUSH1 0x1F AND DUP3 ADD SWAP2 JUMPDEST POP POP POP POP POP SWAP2 POP PUSH1 0x1 PUSH1 0x2 ADD SLOAD SWAP1 POP SWAP1 SWAP2 SWAP3 JUMP JUMPDEST PUSH0 PUSH1 0x20 MSTORE DUP1 PUSH0 MSTORE PUSH1 0x40 PUSH0 KECCAK256 PUSH0 SWAP2 POP SWAP1 POP SLOAD DUP2 JUMP JUMPDEST PUSH0 PUSH1 0x40 MLOAD SWAP1 POP SWAP1 JUMP JUMPDEST PUSH0 DUP1 REVERT JUMPDEST PUSH0 DUP1 REVERT JUMPDEST PUSH0 PUSH20 0xFFFFFFFFFFFFFFFFFFFFFFFFFFFFFFFFFFFFFFFF DUP3 AND SWAP1 POP SWAP2 SWAP1 POP JUMP JUMPDEST PUSH0 PUSH2 0x69C DUP3 PUSH2 0x673 JUMP JUMPDEST SWAP1 POP SWAP2 SWAP1 POP JUMP JUMPDEST PUSH2 0x6AC DUP2 PUSH2 0x692 JUMP JUMPDEST DUP2 EQ PUSH2 0x6B6 JUMPI PUSH0 DUP1 REVERT JUMPDEST POP JUMP JUMPDEST PUSH0 DUP2 CALLDATALOAD SWAP1 POP PUSH2 0x6C7 DUP2 PUSH2 0x6A3 JUMP JUMPDEST SWAP3 SWAP2 POP POP JUMP JUMPDEST PUSH0 DUP2 SWAP1 POP SWAP2 SWAP1 POP JUMP JUMPDEST PUSH2 0x6DF DUP2 PUSH2 0x6CD JUMP JUMPDEST DUP2 EQ PUSH2 0x6E9 JUMPI PUSH0 DUP1 REVERT JUMPDEST POP JUMP JUMPDEST PUSH0 DUP2 CALLDATALOAD SWAP1 POP PUSH2 0x6FA DUP2 PUSH2 0x6D6 JUMP JUMPDEST SWAP3 SWAP2 POP POP JUMP JUMPDEST PUSH0 DUP1 PUSH1 0x40 DUP4 DUP6 SUB SLT ISZERO PUSH2 0x716 JUMPI PUSH2 0x715 PUSH2 0x66B JUMP JUMPDEST JUMPDEST PUSH0 PUSH2 0x723 DUP6 DUP3 DUP7 ADD PUSH2 0x6B9 JUMP JUMPDEST SWAP3 POP POP PUSH1 0x20 PUSH2 0x734 DUP6 DUP3 DUP7 ADD PUSH2 0x6EC JUMP JUMPDEST SWAP2 POP POP SWAP3 POP SWAP3 SWAP1 POP JUMP JUMPDEST PUSH0 DUP2 MLOAD SWAP1 POP SWAP2 SWAP1 POP JUMP JUMPDEST PUSH0 DUP3 DUP3 MSTORE PUSH1 0x20 DUP3 ADD SWAP1 POP SWAP3 SWAP2 POP POP JUMP JUMPDEST DUP3 DUP2 DUP4 MCOPY PUSH0 DUP4 DUP4 ADD MSTORE POP POP POP JUMP JUMPDEST PUSH0 PUSH1 0x1F NOT PUSH1 0x1F DUP4 ADD AND SWAP1 POP SWAP2 SWAP1 POP JUMP JUMPDEST PUSH0 PUSH2 0x780 DUP3 PUSH2 0x73E JUMP JUMPDEST PUSH2 0x78A DUP2 DUP6 PUSH2 0x748 JUMP JUMPDEST SWAP4 POP PUSH2 0x79A DUP2 DUP6 PUSH1 0x20 DUP7 ADD PUSH2 0x758 JUMP JUMPDEST PUSH2 0x7A3 DUP2 PUSH2 0x766 JUMP JUMPDEST DUP5 ADD SWAP2 POP POP SWAP3 SWAP2 POP POP JUMP JUMPDEST PUSH0 PUSH1 0x20 DUP3 ADD SWAP1 POP DUP2 DUP2 SUB PUSH0 DUP4 ADD MSTORE PUSH2 0x7C6 DUP2 DUP5 PUSH2 0x776 JUMP JUMPDEST SWAP1 POP SWAP3 SWAP2 POP POP JUMP JUMPDEST PUSH0 DUP1 REVERT JUMPDEST PUSH0 DUP1 REVERT JUMPDEST PUSH32 0x4E487B7100000000000000000000000000000000000000000000000000000000 PUSH0 MSTORE PUSH1 0x41 PUSH1 0x4 MSTORE PUSH1 0x24 PUSH0 REVERT JUMPDEST PUSH2 0x80C DUP3 PUSH2 0x766 JUMP JUMPDEST DUP2 ADD DUP2 DUP2 LT PUSH8 0xFFFFFFFFFFFFFFFF DUP3 GT OR ISZERO PUSH2 0x82B JUMPI PUSH2 0x82A PUSH2 0x7D6 JUMP JUMPDEST JUMPDEST DUP1 PUSH1 0x40 MSTORE POP POP POP JUMP JUMPDEST PUSH0 PUSH2 0x83D PUSH2 0x662 JUMP JUMPDEST SWAP1 POP PUSH2 0x849 DUP3 DUP3 PUSH2 0x803 JUMP JUMPDEST SWAP2 SWAP1 POP JUMP JUMPDEST PUSH0 PUSH8 0xFFFFFFFFFFFFFFFF DUP3 GT ISZERO PUSH2 0x868 JUMPI PUSH2 0x867 PUSH2 0x7D6 JUMP JUMPDEST JUMPDEST PUSH2 0x871 DUP3 PUSH2 0x766 JUMP JUMPDEST SWAP1 POP PUSH1 0x20 DUP2 ADD SWAP1 POP SWAP2 SWAP1 POP JUMP JUMPDEST DUP3 DUP2 DUP4 CALLDATACOPY PUSH0 DUP4 DUP4 ADD MSTORE POP POP POP JUMP JUMPDEST PUSH0 PUSH2 0x89E PUSH2 0x899 DUP5 PUSH2 0x84E JUMP JUMPDEST PUSH2 0x834 JUMP JUMPDEST SWAP1 POP DUP3 DUP2 MSTORE PUSH1 0x20 DUP2 ADD DUP5 DUP5 DUP5 ADD GT ISZERO PUSH2 0x8BA JUMPI PUSH2 0x8B9 PUSH2 0x7D2 JUMP JUMPDEST JUMPDEST PUSH2 0x8C5 DUP5 DUP3 DUP6 PUSH2 0x87E JUMP JUMPDEST POP SWAP4 SWAP3 POP POP POP JUMP JUMPDEST PUSH0 DUP3 PUSH1 0x1F DUP4 ADD SLT PUSH2 0x8E1 JUMPI PUSH2 0x8E0 PUSH2 0x7CE JUMP JUMPDEST JUMPDEST DUP2 CALLDATALOAD PUSH2 0x8F1 DUP5 DUP3 PUSH1 0x20 DUP7 ADD PUSH2 0x88C JUMP JUMPDEST SWAP2 POP POP SWAP3 SWAP2 POP POP JUMP JUMPDEST PUSH0 DUP1 PUSH1 0x40 DUP4 DUP6 SUB SLT ISZERO PUSH2 0x910 JUMPI PUSH2 0x90F PUSH2 0x66B JUMP JUMPDEST JUMPDEST PUSH0 DUP4 ADD CALLDATALOAD PUSH8 0xFFFFFFFFFFFFFFFF DUP2 GT ISZERO PUSH2 0x92D JUMPI PUSH2 0x92C PUSH2 0x66F JUMP JUMPDEST JUMPDEST PUSH2 0x939 DUP6 DUP3 DUP7 ADD PUSH2 0x8CD JUMP JUMPDEST SWAP3 POP POP PUSH1 0x20 DUP4 ADD CALLDATALOAD PUSH8 0xFFFFFFFFFFFFFFFF DUP2 GT ISZERO PUSH2 0x95A JUMPI PUSH2 0x959 PUSH2 0x66F JUMP JUMPDEST JUMPDEST PUSH2 0x966 DUP6 DUP3 DUP7 ADD PUSH2 0x8CD JUMP JUMPDEST SWAP2 POP POP SWAP3 POP SWAP3 SWAP1 POP JUMP JUMPDEST PUSH2 0x979 DUP2 PUSH2 0x6CD JUMP JUMPDEST DUP3 MSTORE POP POP JUMP JUMPDEST PUSH0 PUSH1 0x60 DUP3 ADD SWAP1 POP DUP2 DUP2 SUB PUSH0 DUP4 ADD MSTORE PUSH2 0x997 DUP2 DUP7 PUSH2 0x776 JUMP JUMPDEST SWAP1 POP DUP2 DUP2 SUB PUSH1 0x20 DUP4 ADD MSTORE PUSH2 0x9AB DUP2 DUP6 PUSH2 0x776 JUMP JUMPDEST SWAP1 POP PUSH2 0x9BA PUSH1 0x40 DUP4 ADD DUP5 PUSH2 0x970 JUMP JUMPDEST SWAP5 SWAP4 POP POP POP POP JUMP JUMPDEST PUSH0 PUSH1 0x20 DUP3 DUP5 SUB SLT ISZERO PUSH2 0x9D7 JUMPI PUSH2 0x9D6 PUSH2 0x66B JUMP JUMPDEST JUMPDEST PUSH0 PUSH2 0x9E4 DUP5 DUP3 DUP6 ADD PUSH2 0x6B9 JUMP JUMPDEST SWAP2 POP POP SWAP3 SWAP2 POP POP JUMP JUMPDEST PUSH0 PUSH1 0x20 DUP3 ADD SWAP1 POP PUSH2 0xA00 PUSH0 DUP4 ADD DUP5 PUSH2 0x970 JUMP JUMPDEST SWAP3 SWAP2 POP POP JUMP JUMPDEST PUSH32 0x4E487B7100000000000000000000000000000000000000000000000000000000 PUSH0 MSTORE PUSH1 0x11 PUSH1 0x4 MSTORE PUSH1 0x24 PUSH0 REVERT JUMPDEST PUSH0 PUSH2 0xA3D DUP3 PUSH2 0x6CD JUMP JUMPDEST SWAP2 POP PUSH2 0xA48 DUP4 PUSH2 0x6CD JUMP JUMPDEST SWAP3 POP DUP3 DUP3 SUB SWAP1 POP DUP2 DUP2 GT ISZERO PUSH2 0xA60 JUMPI PUSH2 0xA5F PUSH2 0xA06 JUMP JUMPDEST JUMPDEST SWAP3 SWAP2 POP POP JUMP JUMPDEST PUSH32 0x4E487B7100000000000000000000000000000000000000000000000000000000 PUSH0 MSTORE PUSH1 0x22 PUSH1 0x4 MSTORE PUSH1 0x24 PUSH0 REVERT JUMPDEST PUSH0 PUSH1 0x2 DUP3 DIV SWAP1 POP PUSH1 0x1 DUP3 AND DUP1 PUSH2 0xAAA JUMPI PUSH1 0x7F DUP3 AND SWAP2 POP JUMPDEST PUSH1 0x20 DUP3 LT DUP2 SUB PUSH2 0xABD JUMPI PUSH2 0xABC PUSH2 0xA66 JUMP JUMPDEST JUMPDEST POP SWAP2 SWAP1 POP JUMP JUMPDEST PUSH0 DUP2 SWAP1 POP DUP2 PUSH0 MSTORE PUSH1 0x20 PUSH0 KECCAK256 SWAP1 POP SWAP2 SWAP1 POP JUMP JUMPDEST PUSH0 PUSH1 0x20 PUSH1 0x1F DUP4 ADD DIV SWAP1 POP SWAP2 SWAP1 POP JUMP JUMPDEST PUSH0 DUP3 DUP3 SHL SWAP1 POP SWAP3 SWAP2 POP POP JUMP JUMPDEST PUSH0 PUSH1 0x8 DUP4 MUL PUSH2 0xB1F PUSH32 0xFFFFFFFFFFFFFFFFFFFFFFFFFFFFFFFFFFFFFFFFFFFFFFFFFFFFFFFFFFFFFFFF DUP3 PUSH2 0xAE4 JUMP JUMPDEST PUSH2 0xB29 DUP7 DUP4 PUSH2 0xAE4 JUMP JUMPDEST SWAP6 POP DUP1 NOT DUP5 AND SWAP4 POP DUP1 DUP7 AND DUP5 OR SWAP3 POP POP POP SWAP4 SWAP3 POP POP POP JUMP JUMPDEST PUSH0 DUP2 SWAP1 POP SWAP2 SWAP1 POP JUMP JUMPDEST PUSH0 PUSH2 0xB64 PUSH2 0xB5F PUSH2 0xB5A DUP5 PUSH2 0x6CD JUMP JUMPDEST PUSH2 0xB41 JUMP JUMPDEST PUSH2 0x6CD JUMP JUMPDEST SWAP1 POP SWAP2 SWAP1 POP JUMP JUMPDEST PUSH0 DUP2 SWAP1 POP SWAP2 SWAP1 POP JUMP JUMPDEST PUSH2 0xB7D DUP4 PUSH2 0xB4A JUMP JUMPDEST PUSH2 0xB91 PUSH2 0xB89 DUP3 PUSH2 0xB6B JUMP JUMPDEST DUP5 DUP5 SLOAD PUSH2 0xAF0 JUMP JUMPDEST DUP3 SSTORE POP POP POP POP JUMP JUMPDEST PUSH0 SWAP1 JUMP JUMPDEST PUSH2 0xBA5 PUSH2 0xB99 JUMP JUMPDEST PUSH2 0xBB0 DUP2 DUP5 DUP5 PUSH2 0xB74 JUMP JUMPDEST POP POP POP JUMP JUMPDEST JUMPDEST DUP2 DUP2 LT ISZERO PUSH2 0xBD3 JUMPI PUSH2 0xBC8 PUSH0 DUP3 PUSH2 0xB9D JUMP JUMPDEST PUSH1 0x1 DUP2 ADD SWAP1 POP PUSH2 0xBB6 JUMP JUMPDEST POP POP JUMP JUMPDEST PUSH1 0x1F DUP3 GT ISZERO PUSH2 0xC18 JUMPI PUSH2 0xBE9 DUP2 PUSH2 0xAC3 JUMP JUMPDEST PUSH2 0xBF2 DUP5 PUSH2 0xAD5 JUMP JUMPDEST DUP2 ADD PUSH1 0x20 DUP6 LT ISZERO PUSH2 0xC01 JUMPI DUP2 SWAP1 POP JUMPDEST PUSH2 0xC15 PUSH2 0xC0D DUP6 PUSH2 0xAD5 JUMP JUMPDEST DUP4 ADD DUP3 PUSH2 0xBB5 JUMP JUMPDEST POP POP JUMPDEST POP POP POP JUMP JUMPDEST PUSH0 DUP3 DUP3 SHR SWAP1 POP SWAP3 SWAP2 POP POP JUMP JUMPDEST PUSH0 PUSH2 0xC38 PUSH0 NOT DUP5 PUSH1 0x8 MUL PUSH2 0xC1D JUMP JUMPDEST NOT DUP1 DUP4 AND SWAP2 POP POP SWAP3 SWAP2 POP POP JUMP JUMPDEST PUSH0 PUSH2 0xC50 DUP4 DUP4 PUSH2 0xC29 JUMP JUMPDEST SWAP2 POP DUP3 PUSH1 0x2 MUL DUP3 OR SWAP1 POP SWAP3 SWAP2 POP POP JUMP JUMPDEST PUSH2 0xC69 DUP3 PUSH2 0x73E JUMP JUMPDEST PUSH8 0xFFFFFFFFFFFFFFFF DUP2 GT ISZERO PUSH2 0xC82 JUMPI PUSH2 0xC81 PUSH2 0x7D6 JUMP JUMPDEST JUMPDEST PUSH2 0xC8C DUP3 SLOAD PUSH2 0xA93 JUMP JUMPDEST PUSH2 0xC97 DUP3 DUP3 DUP6 PUSH2 0xBD7 JUMP JUMPDEST PUSH0 PUSH1 0x20 SWAP1 POP PUSH1 0x1F DUP4 GT PUSH1 0x1 DUP2 EQ PUSH2 0xCC8 JUMPI PUSH0 DUP5 ISZERO PUSH2 0xCB6 JUMPI DUP3 DUP8 ADD MLOAD SWAP1 POP JUMPDEST PUSH2 0xCC0 DUP6 DUP3 PUSH2 0xC45 JUMP JUMPDEST DUP7 SSTORE POP PUSH2 0xD27 JUMP JUMPDEST PUSH1 0x1F NOT DUP5 AND PUSH2 0xCD6 DUP7 PUSH2 0xAC3 JUMP JUMPDEST PUSH0 JUMPDEST DUP3 DUP2 LT ISZERO PUSH2 0xCFD JUMPI DUP5 DUP10 ADD MLOAD DUP3 SSTORE PUSH1 0x1 DUP3 ADD SWAP2 POP PUSH1 0x20 DUP6 ADD SWAP5 POP PUSH1 0x20 DUP2 ADD SWAP1 POP PUSH2 0xCD8 JUMP JUMPDEST DUP7 DUP4 LT ISZERO PUSH2 0xD1A JUMPI DUP5 DUP10 ADD MLOAD PUSH2 0xD16 PUSH1 0x1F DUP10 AND DUP3 PUSH2 0xC29 JUMP JUMPDEST DUP4 SSTORE POP JUMPDEST PUSH1 0x1 PUSH1 0x2 DUP9 MUL ADD DUP9 SSTORE POP POP POP JUMPDEST POP POP POP POP POP POP JUMP JUMPDEST PUSH0 PUSH2 0xD39 DUP3 PUSH2 0x6CD JUMP JUMPDEST SWAP2 POP PUSH2 0xD44 DUP4 PUSH2 0x6CD JUMP JUMPDEST SWAP3 POP DUP3 DUP3 ADD SWAP1 POP DUP1 DUP3 GT ISZERO PUSH2 0xD5C JUMPI PUSH2 0xD5B PUSH2 0xA06 JUMP JUMPDEST JUMPDEST SWAP3 SWAP2 POP POP JUMP JUMPDEST PUSH0 DUP2 SWAP1 POP SWAP3 SWAP2 POP POP JUMP JUMPDEST PUSH32 0x4E616D6500000000000000000000000000000000000000000000000000000000 PUSH0 DUP3 ADD MSTORE POP JUMP JUMPDEST PUSH0 PUSH2 0xDA0 PUSH1 0x4 DUP4 PUSH2 0xD62 JUMP JUMPDEST SWAP2 POP PUSH2 0xDAB DUP3 PUSH2 0xD6C JUMP JUMPDEST PUSH1 0x4 DUP3 ADD SWAP1 POP SWAP2 SWAP1 POP JUMP JUMPDEST PUSH0 PUSH2 0xDC0 DUP3 PUSH2 0xD94 JUMP JUMPDEST SWAP2 POP DUP2 SWAP1 POP SWAP2 SWAP1 POP JUMP JUMPDEST PUSH0 PUSH2 0xDD4 DUP3 PUSH2 0x73E JUMP JUMPDEST PUSH2 0xDDE DUP2 DUP6 PUSH2 0xD62 JUMP JUMPDEST SWAP4 POP PUSH2 0xDEE DUP2 DUP6 PUSH1 0x20 DUP7 ADD PUSH2 0x758 JUMP JUMPDEST DUP1 DUP5 ADD SWAP2 POP POP SWAP3 SWAP2 POP POP JUMP JUMPDEST PUSH0 PUSH2 0xE05 DUP3 DUP5 PUSH2 0xDCA JUMP JUMPDEST SWAP2 POP DUP2 SWAP1 POP SWAP3 SWAP2 POP POP JUMP JUMPDEST PUSH32 0x6E616D6500000000000000000000000000000000000000000000000000000000 PUSH0 DUP3 ADD MSTORE POP JUMP JUMPDEST PUSH0 PUSH2 0xE44 PUSH1 0x4 DUP4 PUSH2 0xD62 JUMP JUMPDEST SWAP2 POP PUSH2 0xE4F DUP3 PUSH2 0xE10 JUMP JUMPDEST PUSH1 0x4 DUP3 ADD SWAP1 POP SWAP2 SWAP1 POP JUMP JUMPDEST PUSH0 PUSH2 0xE64 DUP3 PUSH2 0xE38 JUMP JUMPDEST SWAP2 POP DUP2 SWAP1 POP SWAP2 SWAP1 POP JUMP JUMPDEST PUSH32 0x4162627200000000000000000000000000000000000000000000000000000000 PUSH0 DUP3 ADD MSTORE POP JUMP JUMPDEST PUSH0 PUSH2 0xEA2 PUSH1 0x4 DUP4 PUSH2 0xD62 JUMP JUMPDEST SWAP2 POP PUSH2 0xEAD DUP3 PUSH2 0xE6E JUMP JUMPDEST PUSH1 0x4 DUP3 ADD SWAP1 POP SWAP2 SWAP1 POP JUMP JUMPDEST PUSH0 PUSH2 0xEC2 DUP3 PUSH2 0xE96 JUMP JUMPDEST SWAP2 POP DUP2 SWAP1 POP SWAP2 SWAP1 POP JUMP JUMPDEST PUSH32 0x6162627200000000000000000000000000000000000000000000000000000000 PUSH0 DUP3 ADD MSTORE POP JUMP JUMPDEST PUSH0 PUSH2 0xF00 PUSH1 0x4 DUP4 PUSH2 0xD62 JUMP JUMPDEST SWAP2 POP PUSH2 0xF0B DUP3 PUSH2 0xECC JUMP JUMPDEST PUSH1 0x4 DUP3 ADD SWAP1 POP SWAP2 SWAP1 POP JUMP JUMPDEST PUSH0 PUSH2 0xF20 DUP3 PUSH2 0xEF4 JUMP JUMPDEST SWAP2 POP DUP2 SWAP1 POP SWAP2 SWAP1 POP JUMP INVALID LOG2 PUSH5 0x6970667358 0x22 SLT KECCAK256 0xA8 GASPRICE PUSH26 0x7E9AFC87782364AEA209C3F0902E18B6F445EB8E55A130DB1E45 JUMPI NOT EXTCODEHASH PUSH5 0x736F6C6343 STOP ADDMOD NOT STOP CALLER "
				},
				"gasEstimates": {
					"creation": {
						"codeDepositCost": "787200",
						"executionCost": "816",
						"totalCost": "788016"
					},
					"external": {
						"balance(address)": "2889",
						"burnIt(address,uint256)": "infinite",
						"infoUpdate(string,string)": "infinite",
						"mint(address,uint256)": "infinite",
						"putDetails(string,string)": "infinite",
						"toShow()": "infinite"
					}
				},
				"methodIdentifiers": {
					"balance(address)": "e3d670d7",
					"burnIt(address,uint256)": "08e528ac",
					"infoUpdate(string,string)": "51728e5a",
					"mint(address,uint256)": "40c10f19",
					"putDetails(string,string)": "3fbf11c1",
					"toShow()": "bac6522c"
				}
			},
			"storageLayout": {
				"storage": [
					{
						"astId": 12,
						"contract": "Final_ProjecT_ETF_BEG.sol:Token_Holder",
						"label": "balance",
						"offset": 0,
						"slot": "0",
						"type": "t_mapping(t_address,t_uint256)"
					},
					{
						"astId": 15,
						"contract": "Final_ProjecT_ETF_BEG.sol:Token_Holder",
						"label": "f",
						"offset": 0,
						"slot": "1",
						"type": "t_struct(Token)8_storage"
					}
				],
				"types": {
					"t_address": {
						"encoding": "inplace",
						"label": "address",
						"numberOfBytes": "20"
					},
					"t_mapping(t_address,t_uint256)": {
						"encoding": "mapping",
						"key": "t_address",
						"label": "mapping(address => uint256)",
						"numberOfBytes": "32",
						"value": "t_uint256"
					},
					"t_string_storage": {
						"encoding": "bytes",
						"label": "string",
						"numberOfBytes": "32"
					},
					"t_struct(Token)8_storage": {
						"encoding": "inplace",
						"label": "struct Token_Holder.Token",
						"members": [
							{
								"astId": 3,
								"contract": "Final_ProjecT_ETF_BEG.sol:Token_Holder",
								"label": "name",
								"offset": 0,
								"slot": "0",
								"type": "t_string_storage"
							},
							{
								"astId": 5,
								"contract": "Final_ProjecT_ETF_BEG.sol:Token_Holder",
								"label": "abbr",
								"offset": 0,
								"slot": "1",
								"type": "t_string_storage"
							},
							{
								"astId": 7,
								"contract": "Final_ProjecT_ETF_BEG.sol:Token_Holder",
								"label": "tSupply",
								"offset": 0,
								"slot": "2",
								"type": "t_uint256"
							}
						],
						"numberOfBytes": "96"
					},
					"t_uint256": {
						"encoding": "inplace",
						"label": "uint256",
						"numberOfBytes": "32"
					}
				}
			},
			"userdoc": {
				"kind": "user",
				"methods": {},
				"version": 1
			}
		}
	}
}